:020000041004E6
:1000000000000120096704108922041097220410BF
:1000100000000000000000000000000000000000E0
:10002000000000000000000000000000A1220410F9
:100030000000000000000000AB220410B5220410F4
:100040006D6704106D6704106D6704106D67041010
:100050000000000000000000000000006D670410B8
:10006000C52204106D6704106D6704106D670410DD
:100070006D67041005230410000000006D67041074
:100080006D6704106D670410392304100000000030
:100090002B23041000000000000000001D230410AA
:1000A0006D670410472304106D6704106D6704101A
:1000B0006D67041000000000000000000000000058
:1000C00010B5904216D98AB2030C090C0C4659435C
:1000D00080B25343444350431B191A041B0C10189D
:1000E000594180225203002312184B41520DD8026D
:1000F000104310BD4843802252031218520D10467F
:1001000010BDC0468B0707D0013A22D30B780131CE
:10011000037001308B07F7D1830730D0DB4219D051
:100120000138043A08D308C943701B0A43801B0CEA
:1001300003710430043AF6D2D20707D30B88437018
:1001400001D08A78C2701B0A8370704701D00B7887
:1001500043707047043A06D308C903801B0C4380E0
:100160000430043AF8D2D20705D30B88038005D0B7
:100170008B788370704701D00B780370704770B430
:10018000103A03D378C978C0103AFBD2530701D391
:1001900018C918C001D508C908C0D20704D30B88F4
:1001A000038002300231002A01D50B78037070BC45
:1001B0007047C046EFF31482EFF30981154880F3CE
:1001C0001488BFF36F8FF0B543464C4655465E46E4
:1001D0006746F8B4104CEFF30883636006B4BFF3CE
:1001E0004F8F30BFC046C0460B4C646884F308880C
:1001F00082B003BCF8BC9846A146AA46B346BC46AA
:10020000F0BC04BC80F3098881F31488BFF36F8FBE
:100210001047C04600000000040000200023C25C1C
:100220000133002AFBD1581E7047000003B4714609
:10023000490840004900095E49008E4403BC7047EC
:10024000002243088B4274D303098B425FD3030A15
:100250008B4244D3030B8B4228D3030C8B420DD328
:10026000FF22090212BA030C8B4202D312120902B6
:1002700065D0030B8B4219D300E0090AC30B8B42F4
:1002800001D3CB03C01A5241830B8B4201D38B03A2
:10029000C01A5241430B8B4201D34B03C01A524147
:1002A000030B8B4201D30B03C01A5241C30A8B428A
:1002B00001D3CB02C01A5241830A8B4201D38B0275
:1002C000C01A5241430A8B4201D34B02C01A524119
:1002D000030A8B4201D30B02C01A5241CDD2C3098B
:1002E0008B4201D3CB01C01A524183098B4201D307
:1002F0008B01C01A524143098B4201D34B01C01AF2
:10030000524103098B4201D30B01C01A5241C30869
:100310008B4201D3CB00C01A524183088B4201D3D8
:100320008B00C01A524143088B4201D34B00C01AC4
:100330005241411A00D20146524110467047FFE730
:1003400001B5002000F0F0F802BDC0460029F7D04A
:1003500076E7704703460B437FD4002243088B4265
:1003600074D303098B425FD3030A8B4244D3030B3C
:100370008B4228D3030C8B420DD3FF22090212BA01
:10038000030C8B4202D31212090265D0030B8B427D
:1003900019D300E0090AC30B8B4201D3CB03C01A67
:1003A0005241830B8B4201D38B03C01A5241430B42
:1003B0008B4201D34B03C01A5241030B8B4201D332
:1003C0000B03C01A5241C30A8B4201D3CB02C01A9D
:1003D0005241830A8B4201D38B02C01A5241430A15
:1003E0008B4201D34B02C01A5241030A8B4201D304
:1003F0000B02C01A5241CDD2C3098B4201D3CB01AB
:10040000C01A524183098B4201D38B01C01A524159
:1004100043098B4201D34B01C01A524103098B425D
:1004200001D30B01C01A5241C3088B4201D3CB0048
:10043000C01A524183088B4201D38B00C01A52412B
:1004400043088B4201D34B00C01A5241411A00D2DB
:1004500001465241104670475DE0CA0F00D0494244
:10046000031000D34042534000229C4603098B42B4
:100470002DD3030A8B4212D3FC22890112BA030A3C
:100480008B420CD3890192118B4208D389019211BE
:100490008B4204D389013AD0921100E08909C30943
:1004A0008B4201D3CB01C01A524183098B4201D345
:1004B0008B01C01A524143098B4201D34B01C01A30
:1004C000524103098B4201D30B01C01A5241C308A8
:1004D0008B4201D3CB00C01A524183088B4201D317
:1004E0008B00C01A5241D9D243088B4201D34B0032
:1004F000C01A5241411A00D20146634652415B1074
:10050000104601D34042002B00D549427047634654
:100510005B1000D3404201B5002000F005F802BD99
:100520000029F8D016E770477047C0469140030095
:1005300090409C46203A9340194352426346D34030
:10054000194370478446100062468C461900634682
:1005500000E0C0461FB500F023FA002801D40021B6
:10056000C8421FBD10B500F063F94042013010BD14
:1005700010B500F015FA002801DB002010BD0120A5
:1005800010BDC04610B500F00BFA002801DD0020B8
:1005900010BD012010BDC04610B500F08DF9002837
:1005A00001DC002010BD012010BDC04610B500F0D8
:1005B00083F9002801DA002010BD012010BDC046DB
:1005C0001C2101231B04984201D3000C10391B0A83
:1005D000984201D3000A08391B09984201D3000947
:1005E000043902A2105C40187047C046040302029E
:1005F000010101010000000000000000002B11D1EA
:10060000002A0FD1002900D1002802D00021C943BF
:10061000080007B4024802A14018029003BDC0467A
:1006200009FFFFFF03B4684601B5029800F034F8F3
:10063000019B9E4602B00CBC7047C046F0B5CE464A
:100640009946030C9C46130447461B0C1D000E00E4
:1006500061460404240C80B50700100C4B4365432D
:10066000414360432C0CC01824188C46A34203D984
:1006700080235B029846C444494679435643230C81
:100680002D042D0C8919634424046019C918C0BCB9
:10069000B946B046F0BDC046F0B557464E46454651
:1006A000DE46E0B504000D009246994683B08B42C9
:1006B00030D82DD04946504601F0B2F82900060046
:1006C000200001F0ADF8331A9846203B34D49B4605
:1006D00053465A46934042461F00534693401E00DD
:1006E000AF423BD8AF4200D179E05B46A41BBD418D
:1006F000002B00DA76E00022002300920193012310
:100700005A4693400193012342469340009329E0C7
:100710008242CFD900220023009201930C9B002B30
:1007200001D01C605D600098019903B0F0BCBB462D
:10073000B246A946A046F0BD42469B4620239B1ADE
:100740005246DA40414613004A468A401700424664
:100750001F43534693401E00AF42C3D900220023DB
:10076000009201934346002BD8D0FB0772081A432E
:1007700046467B080EE0AB4201D1A2420CD8A41A37
:100780009D41012024196D410021013E24184D4155
:10079000002E06D0AB42EED9013E24196D41002E49
:1007A000F8D1009801995B4600196941002B24DBC0
:1007B0002B005A464446D3402A00E2401C005B46C8
:1007C0001500002B2ADB26009E40330026004746FA
:1007D000BE403200801A9941009001919EE7A342E9
:1007E000BCD882E74246202300219B1A00220091B8
:1007F00001920122DA40019285E7424620239B1AAA
:100800002A0046469A402300F340444613432A00F8
:10081000E2401C005B461500002BD4DA42462F0054
:100820002023260097409B1ADE403B003343CDE750
:10083000F0B55746DE464E464546E0B50D0004008D
:10084000E80F83460903D80F090B824619488C46E6
:100850001F0369005E00490D3F0B760D814218D0E1
:1008600086420FD00120B1420DD1BC450BD194423C
:1008700009D1D3451CD0002905D160462043431E31
:10088000984100E00120F0BCBB46B246A946A04614
:10089000F0BD01208E42F6D1614639430F00174367
:1008A0002743F0D15B465246981A431E9841EAE727
:1008B0000020E8E7FF070000F0B557464E464546E2
:1008C000DE46E0B50D000F03390B83B0040080460F
:1008D00001915800E90F314F400D8C466E0019030D
:1008E00082469146760D090BD80FBE421FD0BA45FD
:1008F0000FD0002E2FD15546019E3443002D27D115
:100900000A433AD0002C45D100281AD10120404298
:1009100017E011433BD1002E02D1019F2743F3D0B2
:10092000844509D16346002BF0D0604609E0019F61
:1009300027432CD1B24524D063460220013B184006
:10094000013803B0F0BCBB46B246A946A046F0BD94
:10095000002CD9D0E4E75446002CEDD08445EBD1EF
:100960005645E9DCDEDB019B8B42E5D8DAD1C84590
:10097000E2D80020C845E4D2D4E70020002CE0D023
:10098000DAE7114303D18445D6D10020D9E702200C
:100990004042D6E78445E6D0CEE7C046FF070000D8
:1009A000F0B557464E464546DE46E0B50D000F030E
:1009B00004008046E80F390B844683B05800304F5E
:1009C000400D01911E03690082469146490D360B88
:1009D000D80FB94220D0BA450FD000292BD10199A8
:1009E0000C435146002937D1324338D0002C44D132
:1009F000002819D10120404216E0164313D10029E6
:100A000002D1019F2743F3D0844520D063460220C2
:100A1000013B1840013807E0019F274303D18A4575
:100A2000F4D116431FD0022003B0F0BCBB46B2463F
:100A3000A946A046F0BD5446002CE7D08445E5D138
:100A40005145E3DC03DB019BB342DFD80FD06346A3
:100A5000002BCFD06046E7E7002CC9D0D4E70020B8
:100A6000002CE1D0D2E78445D0D10020DCE7C84596
:100A7000CCD80020C845D7D2E9E78445E3D0C5E704
:100A8000FF070000F0B55746DE464E464546E0B546
:100A90001F000B031B0B16009A46CA0F4B000400E5
:100AA000934687B05B0D00D1D5E0BB4A934200D19D
:100AB000F8E05146420FC9000A438021090411435E
:100AC000C2009146B54A8A469D1800239846029373
:100AD0003C037B00FA0F3000240B5B0D009200D129
:100AE00096E0AD4A934231D0720FE4002243802455
:100AF00024041443A94AF000944663445B195A1C29
:100B00000192424600260A2A42DC5A4600994A408F
:100B100093464246022A32DC013A012A00D949E1D1
:100B2000022E00D1CAE0012E3DD100230024002274
:100B300010005A461B052343D2071343190007B080
:100B4000F0BCBB46B246A946A046F0BD924B264338
:100B5000EB18002E00D1BBE00322414611435A4658
:100B6000884600994A40802109018C462900614449
:100B7000019141460A2900DD33E2934603264246AD
:100B800001279740A6213A00C9000A400F4231D000
:100B9000029E022E00D135E2032E00D1D2E154464E
:100BA0004846012EC1D0019A7D4B94466344002BE8
:100BB00000DCC0E0420709D00F220240042A05D021
:100BC000021D82428041404224181000E20106D5F5
:100BD000744B019A1C4080239446DB006344724AA4
:100BE00093426BDC6207C00864025B050243240B7E
:100BF0005B0D9DE7902189000F4263D188223A4224
:100C000000D1D7E0009BA2469B4681460296BFE7F3
:100C10002300334300D17FE0002C00D1ADE1200060
:100C2000FFF7CEFC020003000B3A1D201900821AC8
:100C300030000839D0408C400443300088405B4A83
:100C4000EB1A944663445A1C0192424600260A2A33
:100C500000DC5AE79CE753460343994654D0534679
:100C6000002B00D177E15046FFF7AAFC0B235B4233
:100C70009C460200844411005046083988401D23D8
:100C8000804660461B1A2000D840030040460343BC
:100C90009A4623008B4099460023444D9846AD1A4E
:100CA000029315E752460243914626D100221D00C9
:100CB0000223924608329046029309E7002400225C
:100CC000354B35E7002380249B462403324B2FE726
:100CD0000222414611438022120194462A006244B6
:100CE000884601920A2900DD52E75A460020009901
:100CF00004004A40934602260BE70C221D00032302
:100D0000814690460293E3E600239A4604339846D0
:100D1000033B00250293DBE6424601331A432B00D6
:100D200090465A1C019242460024002001260A2ABD
:100D300000DCEAE62CE70122D21A382A00DDF4E6CC
:100D40001F2A00DC2AE11F214942CB1A2100D94089
:100D50000B00202A05D0164A019D94466544AC40FC
:100D60002043421E904118430723190000240140EC
:100D700003420CD00F230340042B00D140E1031D9C
:100D80008342A4411800644261076402240BC20834
:100D900000230A43CCE6C046FF07000001FCFFFF2A
:100DA000FF030000FFFFFFFEFE0700000DFCFFFF3A
:100DB0003E04000049464A460904090C0D00160C81
:100DC000020C0004000C4543AC4605007543A846E0
:100DD00015000F007543009202952A00009D6F4395
:100DE00065462D0CA94647444F44B84505D9150022
:100DF000802252029046454402953D0C039565467B
:100E00002D043F042D0CAC463D0065440495250C93
:100E10002404240CAC4625007543A84665460F0003
:100E20006943414489466743390C49446E438845C8
:100E300003D980225202904646440D0CA846350044
:100E400045440595039D3F04A8463F0C0904C91974
:100E500088444546039555462E04360C2F0C350024
:100E60004543784381463800A8462D0CAA46009A8F
:100E7000504372434A445244914503D980256D0240
:100E8000A9464844150CA94645462D042D0CA846F4
:100E900065467D43120448449044A94632006546A5
:100EA00062436E437C43170C3619BF19BC4203D909
:100EB00080246402A446E144029C039EA446059D4E
:100EC00066448E428941AC4612043C04120CA218BE
:100ED0006244494254184644A4464645A4418246C9
:100EE0006442A046AA4292418C458941E244D044E2
:100EF000494252420A43A045A44182458941644285
:100F000049420C4341463F0CD2191219CC0D0499A9
:100F100070020843411E884141464A44F60D520280
:100F20003043490214430843D20135D50122430816
:100F300002401343E0071843640834E6009BA246CE
:100F40009B4681468024534624031C4324034A467F
:100F50002E4B240BECE5FFF733FB15239C46844412
:100F60000200634620321C2B00DC84E600239946F5
:100F70002300083883409A468EE6FFF721FB0200E3
:100F80000300153220331C2A00DC4EE60200340038
:100F9000083A0020944052E6019304E61C4B2100DD
:100FA0009C460300019DD3406544A94019430300BA
:100FB000AB40581E834119430800D4404B0709D069
:100FC0000F230B40042B05D00B1D8B428041404268
:100FD00024181800230200D4D6E60123002400229E
:100FE000A6E50F29AAD1802352461B031A42A9D095
:100FF0001C42A7D11C43009B02009B46034B97E574
:101000000024C1E60024014B220091E5FF07000007
:101010001E040000F0B54E464546DE465746E0B594
:1010200085B0009001910C034F00CE0F610A009C27
:10103000B046640F0C4300997F0DC80011001A00E0
:101040001B039C460091019251004B0D9946019B58
:10105000009DD90F63466A0F5B0A1343EA0094466A
:101060009346C14A03900293914500D1CDE00125FA
:1010700069404D467D1BAA468E4200D180E0002D7E
:1010800000DC35E34946002900D1DFE0974200D17A
:1010900094E152460125382A19DC8022029B120471
:1010A0001343029352461F2A00DDE3E153462022F8
:1010B0006146029DD21A9540D9400D436146914048
:1010C0000A00511E8A411543029ADA40A41A451BB0
:1010D000A84280414042241A230200D43DE1640228
:1010E000640A002C00D147E12000FFF769FA0300F1
:1010F000083B20212800CA1AD0409C4002009D4095
:1011000022439F4200DD77E1D81B0130091A2C00F1
:101110008D40C4406B1E9D411300C2408B4025434F
:10112000002714001D436B0709D00F232B40042B0D
:1011300005D02B1DAB42AD416D4264191D00230249
:1011400000D440E1884A0137974200D101E10126ED
:1011500043468649ED0821404A072A437C054D0253
:101160002D0B640D1E4024052C43F607344310005C
:10117000210005B0F0BCBB46B246A946A046F0BD72
:10118000002D00DCD0E24946002900D0D4E06146C1
:10119000029B194300D12BE1691E012D00D1D9E139
:1011A000954200D10AE10125382917DC8A465346C9
:1011B0001F2B00DDE7E12022D21A029B61469340FB
:1011C0001D005346D940634693401A000D43511EFB
:1011D0008A4153461543029ADA40A4182D188542D5
:1011E000804140422418230200D4B6E05E4B013710
:1011F0009F4200D1ADE001215C4B6A081C402940B0
:101200000A43E507154364088DE7594A029B924655
:101210006246BA441A432CD08E422ED05246002A3F
:1012200060D0002F00D1DBE063460E00029CD8089E
:1012300062070243E4081300234300D154E28025EF
:101240002D0325432D03484C2D0B8CE76146029B53
:10125000194300D1CCE029000139012D00D188E1EA
:10126000954200D1AAE00125382900DD2FE78A4602
:1012700018E7012251408E42D0D15346002B00D1B5
:10128000BEE0002F00D038E1CA462200024300D160
:10129000E2E15346591E012B00D10DE2324A92453C
:1012A00000D1D2E10127382913DC1F2900DDEEE14E
:1012B0002022029B521A250007009A46CC409040FB
:1012C0009540CF40A244421E904153462F430743CE
:1012D00002933D00654465459241029B52424F4650
:1012E000D41880E7234A7D1C154200D0AAE062464C
:1012F0002500029B05431A43002F00D0F5E0002D86
:1013000000D16BE1002A00D152E16346C51A029B6D
:10131000E21AA8429B415B42D31A1A0200D4D5E1DB
:1013200063461D1AAC4592410126029B52421C1B8A
:101330008846A41A0E40F6E697423FD05246012551
:10134000382A00DD4AE78022029B120413430293ED
:101350002DE73C000025002205E707232B40002B4A
:1013600000D0E2E66BE0C046FF070000FFFF7FFF12
:1013700001F8FFFFFE0700002800FFF721F9030036
:1013800018331F2B00DCB4E62A00083882409F4245
:1013900000DDB9E0DB1B581C1F2800DCA0E11500B4
:1013A0001F3BDD40202805D040231B1A9A40531EC6
:1013B0009A411543072300272B40D0E7C008620756
:1013C0000243E40837E7EA0863071A43D34BE4080B
:1013D0009F4200D12FE72403250B7C05640DC2E654
:1013E000CA462200024358D163460E00029C039372
:1013F000039B5746DA08E7E7C94CFF1A144092E608
:10140000C84D7A1C2A4200D084E022000243002FFB
:1014100000D0EFE0002A00D1E5E0624602990A43DD
:1014200000D1C5E06346C5188C46854280416444BE
:1014300040422418230202D5B94B01371C40BA465A
:101440000395D5E76246851AA842924152429146D9
:10145000029BE31A1A004B46D21A130091461A0255
:101460006CD44A464C462A4300D03AE60026002473
:10147000002578E6029953460D00203AD540202BEE
:1014800006D04022D21A0B00934062461A4393467C
:101490005B465A1E93411D4319E653465A1E012BC3
:1014A00000D1C6E09D4EB24500D1BDE688460E0093
:1014B0000125382A10DC1F2A7FDC20212500891A0B
:1014C000070088408D40D740D440411E8841029B90
:1014D0003D431B1B054302936246551BAC4592419D
:1014E000029B52424F469C1AF6E5002D00D0B7E011
:1014F000002A00D1F0E001260E4063460298D90888
:1015000042070A43C40896E6854CFF1A1440620756
:10151000E40860E781498A4200D1C9E06346C11806
:1015200081428041029B4042E3181B18DD075C08A2
:10153000072349080D4317002B4010E763461D1A87
:10154000AC4592410126029B52421C1B8846A41ABC
:101550000E40C6E56346C518029B854280419C4605
:101560004042644424180127230200D4F5E60227F0
:1015700041E66346C51AA8428041029B4042E41AF4
:101580000127241AA8E5029D52462B00203AD34099
:1015900019005346202B06D04022D21A2B0093402C
:1015A00062461A4393465D466B1E9D410D4315E608
:1015B0006207C0080243E4080DE711002700203944
:1015C000CF40202A05D040218A1A944025000543A7
:1015D0000395039D6A1E95413D437DE7002A00D196
:1015E00044E701260E406346D908029B5A070A4386
:1015F000DC08F0E6002A28D06246029FC0083A4381
:1016000000D1DCE6620710438022E4081203144292
:1016100009D0FD08154206D1634601262C00D808E2
:101620007B0718430E40420FC000C0085207024318
:1016300001E663461D1AAC459241029B52421C1BB7
:101640000E0088460127A41A46E56346D908029B86
:101650005A070A43DC08EEE56346029C0393C7E69B
:10166000C008002A00D1AAE6620710438022E408DD
:1016700012031442D7D0029FFD081542D3D163460E
:101680000126D8087B072C0018430E40CBE70A0040
:101690002700203AD740202905D04022521A9440F2
:1016A000250005430395039D6A1E95412F4310E6CF
:1016B00014000025002256E5029B604499466045CF
:1016C00092414C4452420500A4184CE71A001C00F9
:1016D0002A4300D0B3E6C9E6802400262403AEE501
:1016E00020210025091A17E5002200250B4C3AE5B8
:1016F000002D00D1F6E54B46DA1B9246002F00D1B3
:101700006FE6382A05DC80263604344388460E000E
:10171000D1E688460E000125DEE6C046FF07000040
:10172000FFFF7FFFFE070000002D00D168E64B465B
:10173000D91B002F01D18A46A7E50127382900DDF2
:10174000C7E5802212041443AFE5C0460B00020037
:1017500070B5164D0C0382B0490000200092019331
:10176000240B490DDE0FA94204DD1148814203DD3F
:10177000104BF01802B070BD8020400320430E4C87
:10178000641A1F2C08DD0D4B5B1AD8400300584229
:10179000002EEFD11800EDE7094B009A9C4603009C
:1017A00061448B40E2401343F1E7C046FE03000072
:1017B0001D040000FFFFFF7F33040000130400003E
:1017C000EDFBFFFF70B5002816D0C317C5185D40AC
:1017D000C40F2800FEF7F4FE104B1B1A5B055B0DCF
:1017E0000A2814DC02002E00153296400B22121A31
:1017F000D5402D032D0B03E00024002300250026F7
:101800001B052B43E40723433000190070BD0B3840
:1018100085402D0300262D0BF2E7C0461E04000074
:1018200010B5002903D1FEF7CBFE203002E00800FE
:10183000FEF7C6FE10BDC04680B582B000AF020004
:10184000FB1D1A70FB1D1B787F2B09D8FB1D1B7815
:101850001A001F231A40044B012191400A001A600C
:10186000C046BD4602B080BD00E100E090B583B047
:1018700000AF02003960FB1D1A70FB1D1B787F2B27
:1018800028D82F4AFB1D1B785BB29B08C0339B00F6
:101890009B58FA1D1278110003220A40D200FF2142
:1018A00091400A00D2431A4011003B689B01FF227D
:1018B0001A40FB1D1B78180003230340DB009A40ED
:1018C0001F48FB1D1B785BB29B080A43C0339B007B
:1018D0001A5031E01B4AFB1D1B7819000F230B40E7
:1018E000083B9B0806339B00D31804331B68FA1D82
:1018F0001278110003220A40D200FF2191400A0011
:10190000D2431A4011003B689B01FF221A40FB1D85
:101910001B78180003230340DB009A400948FB1D95
:101920001B781C000F232340083B9B080A43063307
:101930009B00C31804331A60C046BD4603B090BD77
:1019400000E100E000ED00E080B586B000AF786017
:10195000EFF31083BB60BB687B610123FB60FB6816
:1019600083F31088C0467B681B6820221A437B687B
:101970001A607B693B613B6983F31088C046C046AF
:10198000BD4606B080BD000080B586B000AF78606F
:10199000002004F0ECFE00F058F800F067F8082191
:1019A0007B18E12252021A607B1800225A607B18D1
:1019B00000221A817B1800225A817B1800229A810A
:1019C0007B181900002007F04DFE00F059F905F0D2
:1019D00067FA031E01D000F0DEFA04F0D1FF05F033
:1019E000E5F80F4BDA6880239B05134003D00D4BBD
:1019F000180029F0E9FE0A4BDA6880235B051340E2
:101A000003D0094B180029F0DFFE00F077FF00201B
:101A100004F0B7FE00231800BD4606B080BDC046E6
:101A20000400002090D30610ACD3061080B500AFA0
:101A3000C046BD4680BD80B500AFC046BD4680BD36
:101A400080B500AFC046BD4680BD80B500AF002068
:101A500007F0B6FC012007F0B3FC022007F0B0FC51
:101A6000012007F023FDC046BD4680BD80B582B091
:101A700000AF2B4B00221A70294B282201219954C8
:101A8000274B5022022199540121002007F02CFD00
:101A90000121012007F028FD0121022007F024FD8B
:101AA000204B1A00002110200DF0DEFD1E4B1A0005
:101AB000002120200DF0D8FD1C4B1A0000214020F1
:101AC0000DF0D2FDFB1D00221A7021E0FB1D1A78DB
:101AD000134913009B009B18DB00CB181033144AEA
:101AE0001A60FB1D1978FB1D1A780B009B005B1810
:101AF000DB000B4959180A4813009B009B18DB00B8
:101B0000C3181C331960FB1D1A78FB1D01321A70B3
:101B1000FB1D1B78022BD9D9C046BD4602B080BD43
:101B2000500200202D1A0410371A0410411A041014
:101B3000351B041080B584B000AF78607B685B69AA
:101B4000FB60FB681B78180007F06AFD0300D9B240
:101B5000FB6820229954FB681B785A1C114B11001A
:101B6000180029F0C1FDFB681B78022B0FD013DC95
:101B7000002B02D0012B05D00EE0002110200DF02B
:101B800097FD0AE0002120200DF092FD05E00021E4
:101B900040200DF08DFD00E0C046C046BD4604B0BB
:101BA00080BDC046C8D30610B0B584B000AF786021
:101BB00039603B681A687B685A603B685A687B6882
:101BC0009A603B681B891A007B68DA603B685B8916
:101BD0001A007B681A617B680C225A613B689B89FA
:101BE0001A007B689A617B6880221202DA617B6846
:101BF00000221A627B6800225A620F257C197B68DA
:101C000018000BF02FFC030023707B191B78002BAE
:101C100002D07B191B782FE00F257C197B680021EF
:101C200018000CF0F2F8030023707B191B78002BCE
:101C300002D07B191B781FE00F257C197B680021DF
:101C400018000CF021F9030023707B191B78002B7E
:101C500002D07B191B780FE00F257C197B681800D8
:101C60000CF096F8030023707B191B78002B02D030
:101C70007B191B7800E000231800BD4604B0B0BDFE
:101C800080B500AF0A4B1800FFF75EFE0121082067
:101C9000FFF7ECFD0820FFF7CFFD064B1B689868A7
:101CA00000230222002129F099FDC046BD4680BDD7
:101CB00000400041FC0B002080B500AF01235B42D7
:101CC00018000DF0D1FBC046BD4680BD80B500AF09
:101CD000C046BD4680BD80B500AFC046BD4680BD94
:101CE00080B500AFBFF34F8FC046044B044ADA60A3
:101CF000BFF34F8FC046C046FDE7C04600ED00E091
:101D00000400FA0580B582B000AF78607B681B697B
:101D10001800BD4602B080BD80B584B000AF7860C9
:101D2000074B196D064B7A680A431A65044B1B6D05
:101D30007A681340FB60FB68C046BD4604B080BDB6
:101D40000000404880B584B000AF7860074B196E42
:101D5000064B7A680A431A66044B1B6E7A68134076
:101D6000FB60FB68C046BD4604B080BD0000404833
:101D700080B582B000AF7860064B1B6E7A68134066
:101D80007A689A4201D1012300E000231800BD4681
:101D900002B080BD0000404880B582B000AF7860DE
:101DA000044B196C034B7A680A431A64C046BD465B
:101DB00002B080BD0000404880B582B000AF7860BE
:101DC000054B1A6C7B68D943034B0A401A64C04622
:101DD000BD4602B080BDC0460000404880B500AF9F
:101DE00007F076FE00F010F800F045F800F0C6F8B5
:101DF00000F072F800F08EF800F05AF80020FFF7BB
:101E0000C3FDFFF759FFFCE790B589B000AF082488
:101E10003B19180018231A00002129F0B9FE3B00D5
:101E2000180008231A00002129F0B2FE3B190322F2
:101E30001A603B19802252025A603B191022DA6064
:101E40003B1918000AF056FF031E01D000F0A3F85A
:101E50003B0000221A603B0020225A603B00002118
:101E600018000BF091F8031E01D000F094F8C04662
:101E7000BD4609B090BD80B586B000AF3B001800EC
:101E800018231A00002129F083FE3B0002221A6069
:101E90003B00802252015A613B0018000BF00AFA05
:101EA000031E01D000F077F8C046BD4606B080BDE5
:101EB00080B500AF064B074A1A60054B180008F0C2
:101EC000E2FA031E01D000F066F8C046BD4680BDB0
:101ED000C80200200000304880B582B000AF002367
:101EE0007B600120FFF744FF031E08D10120FFF7AC
:101EF00053FF0120FFF760FF0120FFF723FFC023FE
:101F0000DB057B603B1D180008F0B4FDC046BD46F4
:101F100002B080BD80B582B000AF3B00180008233E
:101F20001A00002129F034FE0120FFF721FF031ED3
:101F300008D10120FFF730FF0120FFF73DFF01200E
:101F4000FFF700FFC0460C4B1800FFF7DBFE030055
:101F50000F2BF8D93B00A02252001A803B00002230
:101F60009A703B0000225A603B00180009F098FA72
:101F7000C046BD4602B080BD0018006080B500AF0D
:101F80000820FFF7C9FE0420FFF7C6FE04F003FC9B
:101F9000C046BD4680BD80B500AF72B6C046FFF7F3
:101FA0009FFE000080B584B000AF7860074B196DCC
:101FB000064B7A680A431A65044B1B6D7A68134016
:101FC000FB60FB68C046BD4604B080BD00004048D1
:101FD00080B584B000AF7860074B996D064B7A6886
:101FE0000A439A65044B9B6D7A681340FB60FB685B
:101FF000C046BD4604B080BD0000404880B584B0F6
:1020000000AF7860074B196E064B7A680A431A6670
:10201000044B1B6E7A681340FB60FB68C046BD46EC
:1020200004B080BD0000404880B582B000AF786049
:10203000064B1B6E7A6813407A689A4201D10123DD
:1020400000E000231800BD4602B080BD00004048FB
:1020500080B582B000AF7860044B196C034B7A688E
:102060000A431A64C046BD4602B080BD0000404825
:1020700080B582B000AF7860054B1A6C7B68D9439D
:10208000034B0A401A64C046BD4602B080BDC0463C
:102090000000404880B500AF00F0BCF8C046BD4627
:1020A00080BD000080B582B000AF78607B681B689F
:1020B000094A93420CD180235B021800FFF772FF9C
:1020C000002201210D2007F06BFE0D2007F07DFEA0
:1020D000C046BD4602B080BD0000304890B589B012
:1020E00000AF786008243B19180018231A0000215B
:1020F00029F04EFD7B681A68C023DB059A422DD17A
:102100003B1901221A603B1904221A613B1918007D
:102110000BF0D0F8031E01D0FFF73DFF0120FFF7C1
:1021200083FF031E08D10120FFF792FF0120FFF774
:102130009FFF0120FFF762FF04F02DFB002200212A
:10214000122007F02DFE122007F03FFE0022002192
:10215000192007F025FE192007F037FEC046BD46BE
:1021600009B090BD90B589B000AF78600C243B19E0
:10217000180014231A00002129F00AFD7B681B684F
:10218000224A93423ED18023DB001800FFF720FF54
:102190000820FFF707FF0420FFF704FF3B19012287
:1021A0001A603B1902225A603B1900229A603B19BF
:1021B0000022DA603B1900221A613B19144A190007
:1021C000100007F07DFF21007B1802221A607B18A7
:1021D00002225A607B1800229A607B180022DA6083
:1021E0007B1802221A617A189023DB05110018006F
:1021F00007F066FF00220121082007F0D1FD08202A
:1022000007F0E3FDC046BD4609B090BD0040004167
:102210000000104880B500AF0F21002008F010FA30
:10222000F0231B011900002008F044FA064B1900A6
:10223000012008F03FFA054B1900012008F000FAD0
:10224000C046BD4680BDC046C930000036C0000053
:1022500080B582B000AF78607B68DB6920221340D4
:10226000202B01D1012300E000231800BD4602B05D
:1022700080BD80B582B000AF78607B685B6ADBB2FE
:102280001800BD4602B080BD80B500AF07F0ADFDBF
:10229000C046BD4680BD80B500AF07F0A6FDFEE795
:1022A00080B500AFC046BD4680BD80B500AFC0461A
:1022B000BD4680BD80B500AF07F06AFCC046BD4694
:1022C00080BD000080B582B000AF0D4B1800FFF755
:1022D000BFFF0300012B0CD1094B1800FFF7C9FF0A
:1022E00003001A00FB1D1A70FB1D0121180001F0EC
:1022F000A1FE034B0F221A62C046BD4602B080BD4C
:102300000040004180B500AF034B180008F018F9F9
:10231000C046BD4680BDC046C802002080B500AFA3
:102320000AF0F2FAC046BD4680BD80B500AF0AF0A3
:10233000F4FAC046BD4680BD80B500AF08F032FF5C
:10234000C046BD4680BD80B500AF08F04CFFC0461A
:10235000BD4680BD80B586B000AFF860B9607A60D8
:1023600000237B610AE000E000BF0100BB685A1C4B
:10237000BA60CAB21A707B6901337B617A697B6883
:102380009A42F0DB7B681800BD4606B080BD80B580
:1023900086B000AFF860B9607A6000237B6109E025
:1023A000BB685A1CBA601B78180007F09BF97B6960
:1023B00001337B617A697B689A42F1DB7B681800A4
:1023C000BD4606B080BD80B582B000AF7860012305
:1023D0005B421800BD4602B080BD80B582B000AF40
:1023E000786039603B68802292015A6000231800AF
:1023F000BD4602B080BD80B582B000AF78600123D9
:102400001800BD4602B080BD80B584B000AFF86052
:10241000B9607A6000231800BD4604B080BD00009A
:1024200080B586B000AF7860144A154BD31A7B6133
:102430007B693B61134B1B68002B02D1114B124A85
:102440001A60104B1A687B68D3183A699A4207D20F
:1024500029F02AFC03000C221A6001235B4209E0E8
:10246000084B1B68FB60074B1A687B68D218054B4A
:102470001A60FB681800BD4606B080BD0000012050
:10248000000C0000D4020020BC3E002080B500AF4C
:10249000BFF34F8FC046044B044ADA60BFF34F8F3F
:1024A000C046C046FDE7C04600ED00E00400FA0566
:1024B00080B500AF02F046F906F028F903000133B9
:1024C00001D1FFF768FDC046BD4680BDF0B59BB0A9
:1024D00004AF5723FB1800221A704423FB18002274
:1024E0001A6000229A804323FB1806221A704023A8
:1024F000FB1800221A800C26BA19B74B10001900DD
:1025000034231A0029F0E2FB56257C19BB19180068
:102510000DF0BAFE030023707B191B78002B08D046
:102520007B191A78AD4B1100180029F0DDF8FFF780
:1025300032FD56257C19182100200DF09BFB03006D
:1025400023702A00BB181B78002B07D0BB181A7801
:10255000A34B1100180029F0C7F803E0A14B1800A5
:1025600029F032F956257C195223FB181900012055
:1025700006F080FA030023707B191B78002B07D02C
:102580007B191A78984B1100180029F0ADF803E078
:10259000964B180029F018F955217B1800221A7063
:1025A0007B187A18127806210A431A7056257C196E
:1025B0005723FB181B78012118000DF085F9030043
:1025C00023707B191B78002B07D07B191A78884B56
:1025D0001100180029F088F803E0864B180029F054
:1025E000F3F85626BC194E23FD185023FA1857232A
:1025F000FB1819785523FB1818784C23FB18009307
:102600002B0006F0BFF803002370BC1944257A198B
:102610004323FB18190080200DF028FB03002370D2
:1026200028003B185B791C003B181B791D003B18E8
:10263000DB781E003B189B781A003B185B7819006A
:102640003B181B786C4802930191009233002A00DA
:10265000210029F049F85626BC19684B1A000921B7
:10266000002006F021F903002370BB191B78002B12
:1026700007D0BB191A78624B1100180029F034F802
:1026800003E0604B180029F09FF856257C19402381
:10269000FB181A000221002006F02CF90300237019
:1026A0007B191B78002B07D07B191A78564B110029
:1026B000180029F019F803E0544B180029F084F8A9
:1026C000534B01221A70524B1B7856257C19180067
:1026D0000CF04CFD030023707B191B78002B07D0F6
:1026E0007B191A784B4B1100180028F0FDFF03E00E
:1026F000494B180029F068F8454B01225A70444BA9
:102700000822DA70424B10221A71414B01229A7052
:102710003F4B98783E4B59783D4BDB783C4A1279D9
:102720005626BC1900250295019200930023002231
:102730000CF02CFD03002370BB191B78002B07D075
:10274000BB191A78354B1100180028F0CDFF03E0B3
:10275000334B180029F038F82D4B9B78002B17D0FD
:1027600056257C1901200DF049F9030023702A0039
:10277000BB181B78002B07D0BB181A78294B110007
:10278000180028F0B1FF03E0274B180029F01CF8CF
:102790003B1D264A03CA03C356257C193B1D18005E
:1027A0000DF09AF8030023707B191B78002B07D0DB
:1027B0007B191A781E4B1100180028F095FF03E0D2
:1027C0001C4B180029F000F81B4B180028F0FCFFE8
:1027D000C046BD4617B0F0BD84D80610DCD3061045
:1027E00000D4061040D4061070D40610B0D40610E1
:1027F000E0D4061014D5061034D5061098E506105E
:1028000078D50610BCD50610F0D5061034D60610C3
:10281000D802002068D60610A8D60610D8D6061012
:1028200020D7061058D70610B0D70610B8D8061013
:10283000F8D7061038D8061068D8061080B500AF53
:10284000012101200CF034FFC046BD4680BD80B59B
:1028500000AF012003F08BFF0DF032FC012003F0EC
:1028600090FFC046BD4680BD80B500AF08F010FFA8
:10287000C046BD4680BD80B500AF002102200CF0EF
:1028800017FFC046BD4680BD80B500AF05F0C4FE51
:10289000C046BD4680BD80B500AF012104200CF0CC
:1028A00007FFC046BD4680BD80B500AFFFF7E3FF20
:1028B000C046BD4680BD80B582B000AF78607B6801
:1028C00018001FF089F9FFF7D6FFFFF7E4FFC046B5
:1028D000BD4602B080BD80B500AFFFF7AFFFC04678
:1028E000BD4680BD80B500AF8023DB00002118000D
:1028F0000CF0DEFEC046BD4680BD000080B500AFD6
:10290000164B1A00002101200CF0AEFE144B1A00E9
:10291000002102200CF0A8FE124B1A000021042016
:102920000CF0A2FEFFF7C4FDFFF7D0FD0E4A802396
:10293000DB00002118000CF097FE0C4A80239B005E
:10294000002118000CF090FE00F072FF00F0DAFD9C
:1029500000F094FEC046BD4680BDC0464F2804101E
:10296000692804108928041005470410A1370410B1
:10297000F0B5C64600B5A8B006AF78607323FB1863
:1029800086221A707B681B78042B05D07B681B7825
:10299000822B01D000F0D5FB7B680133FB667B689E
:1029A0001B78042B05D1FB6E02338422BA18136006
:1029B00007E07B680133BB66BB6E03338422BA1821
:1029C0001360FB6E1B78FF2B00D167E201DD00F086
:1029D000AFFB3E2B36D000DDAAE3052B03D0102B36
:1029E00000D191E3A4E3FB6E0233FB60FB685A78ED
:1029F0009B781B0213439AB2E74B9B899A421DD1E5
:102A0000E54B012252429A81E34B00229A73E34B39
:102A1000180028F0D9FEFB685A789B781B021343F4
:102A20009BB21900FB68DB781A00DD4B180028F018
:102A30005BFE08200CF068FE00F020FE00F0A2FC17
:102A400000F0BBFBFB6E02337B647B6C1B78292B95
:102A500000D916E29A00D34BD3181B689F467B6CB3
:102A600001333B62D04B180028F0AEFE3B6ADA78A7
:102A70001B791B0213439BB21800FEF7A3FE002232
:102A8000CA4BFDF7FFFF02000B0010001900FEF714
:102A90005DFE06003B6ADA781B791B0213439BB28A
:102AA0001800FEF78FFE0022C04BFDF7EBFF02007F
:102AB0000B001000190000220023FDF76DFD031E1E
:102AC0003DD03B6ADA781B791B0213439BB2180096
:102AD000FEF778FE0022B54BFDF7D4FF02000B0095
:102AE00014001D003B6ADA781B791B0213439BB26A
:102AF0001800FEF767FE0022AC4BFDF7C3FF020093
:102B00000B0010001900FEF721FE03001800FEF76D
:102B100059FE02000B0020002900FEF77BFA02009C
:102B20000B00100019000022A14BFDF7ABFF0200C3
:102B30000B0010001900FEF709FE02003AE03B6AA4
:102B4000DA781B791B0213439BB21800FEF73AFE9A
:102B50000022964BFDF796FF02000B0010001900B3
:102B6000FEF7F4FD03001800FEF72CFE04000D0034
:102B70003B6ADA781B791B0213439BB21800FEF7FD
:102B800021FE0022894BFDF77DFF02000B00200093
:102B90002900FEF73FFA02000B0010001900002286
:102BA000834BFDF76FFF02000B0010001900FEF7CA
:102BB000CDFD02003B6A59799B791B020B439BB206
:102BC0001C003B6AD9791B7A1B020B439BB219008C
:102BD0000B009B005B185B007648009323003100DC
:102BE00028F082FD59E17B6C0133FB6200F0CAFBE7
:102BF00053E17B6C0133BB62BB6A1D78BB6A5A78B8
:102C00009B781B0213439EB2BB6ADB789C46BB6A6F
:102C10001B799846BB6A5A1DBB6AD97D1B7E1B0275
:102C20000B4399B2BB6A587E9B7E1B02034398B24A
:102C3000BB6ADC7E1B7F1B0223439BB20393029083
:102C400001910092434662463100280000F0BAFA32
:102C500023E17B6C01333B643B6C1D783B6C5A7801
:102C60009B781B0213439EB23B6CDB789C463B6C0B
:102C70001B7998463B6C5A1D3B6CD97D1B7E1B0211
:102C80000B4399B23B6C587E9B7E1B02034398B268
:102C90003B6CDC7E1B7F1B0223439BB203930290A1
:102CA00001910092434662463100280000F08AFA02
:102CB000F3E07B6C01337B617B691D787B695A781B
:102CC0009B781B0213439EB27B69DB789C467B6931
:102CD0001B7998467B695A1D7B69D97A1B7B1B023D
:102CE0000B4399B27B69587B9B7B1B02034398B2D1
:102CF0007B69DC7B1B7C1B0223439BB2039302900A
:102D000001910092434662463100280000F05AFAD1
:102D1000C3E07B6C0133FB61FB69587AFB690A33C2
:102D20001900FB699A78FB6903331B257C1900F0B5
:102D300031FB030023707B191B78002B00D1A9E025
:102D4000012000F08DFAA5E07B6C01337B637B6B87
:102D5000187E7B6B193319007B6BDA787B6B04333D
:102D600033257C1900F016FB030023707B191B78B8
:102D7000002B00D190E0012000F072FA8CE07B6C17
:102D800001337B620C4B180028F0AEFC002380223C
:102D9000BA18136024E0C046D8020020C0D806103C
:102DA000ECD80610A4E506102CD906100000F43F5C
:102DB0000000594060D90610D0D906107A6A8024E4
:102DC0003B191B68D31803331B781A00DE4B110024
:102DD000180028F089FC3B191B6801333A1913606D
:102DE0008023FB181B68072BE8DD0A2028F08CFCE9
:102DF00008200CF089FC50E07B6C0133BB63BB6B9B
:102E00005B78FB6707E0FB6FDBB2180000F030FF78
:102E1000FB6F0133FB67BB6B5B781A00BB6B9B7866
:102E2000D318FA6F9A42EEDB37E07B6C0133FB6319
:102E3000C64B180028F0C8FCFB6B0433BB670023AB
:102E40007B6717E0FB6B5878BB6FD978BB6F5A79FB
:102E5000BB6F063300F0F8FFBB6F5B791A001300FD
:102E60005B009B185B002433BA6FD318BB677B6F82
:102E700001337B67FB6BDB781A007B6F9342E1DBEE
:102E80000BE07B6C1B781A00B14B1100180028F086
:102E90002BFC02E0C04690E1C0468EE18423FB1883
:102EA0001B687B667B6E1A785B781B0213439BB2B0
:102EB000A84A934200D1D7E0A64A934200DD12E12E
:102EC000A54A93422AD0A44A934200DD0BE1A34ACB
:102ED000934200D185E0A14A934200DD03E1A04A7C
:102EE000934264D08122D200934200DBFBE09D4AF2
:102EF000934200D17AE09B4A934200DDF3E09A4A84
:102F0000934200D192E0984A934200DDEBE0042B1B
:102F100000D1F5E0062B00D1D8E0E4E07B6E02336F
:102F2000BB6557217B1801221A70BB6D1A785B783C
:102F30001B02134398B2BB6D5A799B791B02134352
:102F40009DB2BB6DDA791B7A1B0213439EB2BB6D37
:102F50005A7A9B7A1B0213439BB29C46BB6DDA7A6A
:102F60001B7B1B0213439BB2BA6D927856243C190B
:102F7000791809780491039210220292102201928A
:102F800000936346320029000CF0A5F9030023707A
:102F900056243B191B78002B04D0744B180028F0E2
:102FA00013FCB0E0724B180028F00EFCABE0714B44
:102FB000180028F009FC7B6E02333B653B6D1B78E3
:102FC000012B00D09EE03B6D5B78002B00D099E098
:102FD000694B180028F0F8FB002180200CF068FBFA
:102FE00090E0664B180028F0EFFB8CE0644B180073
:102FF00028F0EAFB634B9B8973257C19624A110018
:1030000018000CF0F2F8030023707B191B78002BDA
:1030100007D07B191A785D4B1100180028F064FB6B
:1030200071E05B4B180028F0CFFB6CE0594B1800A7
:1030300028F0CAFB7B6E0233FB64FB6C9B78002B91
:103040000AD0FB6C9B781900FB6CDB781A00524BA2
:10305000180028F049FB03E0504B180028F0B4FB9F
:103060000A2028F051FB4EE04D4B180028F0ACFB35
:103070007B6E02333B665F243B1908221A703B6E5D
:103080001A795B791B0213439BB21A00454B11005E
:10309000180028F029FB3B6E1A785B781B0213435B
:1030A00098B23B6E9A78DB781B02134399B23B6E61
:1030B0001A795B791B0213439AB23B191B780024DF
:1030C0000194002400940CF0DDF81CE07B6E0233C8
:1030D000BB64BB6C1B781A00334B1100180028F03E
:1030E00003FBFFF7D3F97B6E1A785B781B0213435F
:1030F0009BB21A002D4B1100180028F0F5FA02E0DF
:10310000C0465AE0C04658E0FB6E02333B613B6963
:103110001B781A00264B1100180028F0E5FA3B69CD
:103120001B78032B48D8052006F058FDFFF7AEF9B1
:10313000FB6E1B781A001F4B1100180028F0D4FA00
:103140003BE0C04639E0C046E0D90610E8D9061099
:1031500014DA0610190C0000020800000A0400002E
:1031600007040000020400000104000030DA061029
:1031700070DA0610B0DA0610D8DA061000DB061096
:1031800030DB0610D802002007B2010054DB061025
:1031900088DB0610ACDB0610D8DB061018DC061046
:1031A00030DC061054DC061064DC061084DC0610EB
:1031B0009CDC0610BCDC0610C046BD4622B080BCBC
:1031C000B846F0BDF0B587B004AF05000C001000A4
:1031D0001900FB1D2A1C1A703B1D221C1A80BB1DE6
:1031E000021C1A70FB1C0A1C1A703B1D1A88194B12
:1031F0001100180028F078FA3B6A05331B781C0090
:103200003B6A04331B781D003B6A03331B781E00A6
:103210003B6A02331B781A003B6A01331B781900A2
:103220003B6A1B780C4802930191009233002A00FC
:10323000210028F059FA094B3A1D12889A818023FF
:103240009B00002118000CF033FAC046BD4603B0C5
:10325000F0BDC046D0DC061014DD0610D8020020F8
:10326000B0B588B002AF0200FB1D1A70FB1D1B78C1
:10327000002B02D0012B09D00FE0C8239B007B61FB
:10328000C8239B003B610423FB6006E001237B61B4
:1032900001233B610023FB60C046FB1D1B78002B14
:1032A00002D0012B3FD05BE07B699BB23A6992B2BE
:1032B0000B257C190192009301230122002101209A
:1032C0000BF0C7FE030023707B191B78002B07D07F
:1032D0007B191A78244B1100180028F005FA03E036
:1032E000224B180028F070FA0B257C1900230022CD
:1032F000012101200BF007FF030023707B191B78CD
:10330000002B07D07B191A78194B1100180028F0F0
:10331000EBF925E0FB68DAB2164B9A73164B1800EE
:1033200028F052FA1CE00B257C1901200BF00EFF4F
:10333000030023702A00BB181B78002B07D0BB1892
:103340001A780E4B1100180028F0CEF907E0FB6840
:10335000DAB2084B9A730A4B180028F035FAC046C7
:10336000C046BD4606B0B0BD0CDE061044DE0610F9
:1033700074DE0610D8020020A4DE0610CCDE061093
:1033800000DF061080B500AF01200CF0BDF9C0468B
:10339000BD4680BDF0B58BB004AFB96011007B6055
:1033A0000F23FB18021C1A700E23FB180A1C1A703C
:1033B0001723FB1800221A701423FB1800221A800E
:1033C00088E014217B181B88BA68D2181323FB18D5
:1033D00012781A707B181B880133BA68D218122130
:1033E0007B1812781A707B181B78FF2B05D059DCDC
:1033F000012B59D00A2B59D054E01323FB181B780A
:10340000062B55D914217B181B880233BA68D318B0
:103410001B78302B4CD17B181B880333BA68D31828
:103420001B78002B44D17B181B880433BA68D3184F
:103430001B78022B3CD17B181B880633BA68D31843
:103440001B78832B34D12D4B0E22BA1812781A74A4
:103450002A4B112279689B180622180028F036FCA6
:10346000264B0122DA73254B9B7D1C00234B5B7D91
:103470001D00224B1B7D1E00204BDB7C1A001F4BC6
:103480009B7C19001D4B5B7C1D48029301910092AF
:1034900033002A00210028F027F91723FB18012206
:1034A0001A7005E0C04604E0C04602E0C04600E0F5
:1034B000C0461323FB181B789AB214217B181B8873
:1034C000D3189AB27B1801321A801723FB181B7885
:1034D000002B0AD10F23FB181B789BB21422BA18B9
:1034E00012889A4200D26CE700E0C0461723FB180E
:1034F0001B781800BD4607B0F0BDC046D8020020BA
:103500002CDF061090B58FB00CAFFC1DC823DA007D
:1035100000230A93002309930123089300230793B0
:1035200001230693002305930023049300230393B0
:103530000023029307230193C823DB0000931300A9
:103540000022002100200CF069FA03002370FB1D0B
:103550001B78002B07D0FB1D1A78404B1100180078
:1035600028F0C2F803E03E4B180028F02DF9FC1DAE
:1035700080235A00802359000823049304230393D3
:1035800002230293182301930423009300230020B5
:103590000BF032FF03002370FB1D1B78002B07D0BC
:1035A000FB1D1A782F4B1100180028F09DF803E03E
:1035B0002D4B180028F008F9FC1D002101200BF00C
:1035C00005FF03002370FB1D1B78002B07D0FB1D9C
:1035D0001A78264B1100180028F086F803E0244BD7
:1035E000180028F0F1F83B0000221A703B0000227E
:1035F0005A803B0000221A71FC1D3B001A00012179
:1036000001200BF0AFFE03002370FB1D1B78002B85
:1036100007D0FB1D1A78174B1100180028F064F82A
:1036200003E0154B180028F0CFF8FC1D3B001A00F2
:10363000012100200BF096FE03002370FB1D1B7878
:10364000002B06D0FB1D1A780A4B1100180028F039
:103650004BF8C046BD4603B090BDC04664DF0610BF
:10366000A8DF0610DCDF061028E0061064E0061074
:10367000A8E00610E0E0061024E1061090B587B03F
:1036800004AFFC1D3D4B0922012101200CF082F901
:1036900003002370FB1D1B78002B09D0FB1D1A783B
:1036A000374B1100180028F01FF8FEF774FC03E0F8
:1036B000344B180028F088F8FC1DA0230193A023A8
:1036C000009300230122012101200BF0C2FC030022
:1036D0002370FB1D1B78002B09D0FB1D1A782A4B89
:1036E0001100180028F000F8FEF755FC03E0274B06
:1036F000180028F069F8FC1D0223029302230193AD
:103700003223009300232822282101200BF0CCFC37
:1037100003002370FB1D1B78002B07D1FB1D1A78BB
:103720001B4B1100180027F0DFFF08E0FB1D1A7883
:10373000184B1100180027F0D7FFFEF72CFCFC1DDA
:1037400000230022012102200BF0DDFC0300237086
:10375000FB1D1B78002B09D0FB1D1A780E4B1100A6
:10376000180027F0C1FFFEF716FC03E00B4B180012
:1037700028F02AF8C046BD4603B090BD380A0020A4
:103780005CE10610ACE106100CDE061044DE06100B
:10379000F4E1061038E2061074DE06107CE2061032
:1037A00090B583B000AF08200BF0CCFF1B4B9B897A
:1037B000FC1D18000BF0C6FD03002370FB1D1B78D9
:1037C000002B07D0FB1D1A78154B1100180027F0AD
:1037D0008BFF20E0134B180027F0F6FF08200BF0BA
:1037E000CFFF0E4B9B89FC1D0022002118000BF01F
:1037F000D0FD03002370FB1D1B78002B07D0FB1DA1
:103800001A78094B1100180027F06EFF03E0074BF0
:10381000180027F0D9FFBD4603B090BDD8020020A4
:10382000B8E20610ECE2061018E3061060E306109A
:1038300080B582B000AF00237B600DE07A68130092
:103840001B019B1A9B009B1A074A9B18180005F046
:1038500081FB7B6801337B607B68032BEEDDC04618
:10386000C046BD4602B080BDF002002080B584B0E5
:1038700000AF3A60FB1D021C1A70BB1D0A1C1A70B7
:103880000F23FB1800221A70BB1D1B78FF2B01D1E0
:10389000012341E0FB1D1B78032B01D902233BE0F0
:1038A0000F23FB181B781B09DAB20E217B1802329A
:1038B0001A707B181B781033180027F08BFD03005B
:1038C000BB60BB68002B01D1012325E0FB1D1A78EA
:1038D00013001B019B1A9B009B1A114A9B18BA6884
:1038E0001100180005F088FBBB683A68DA60BB1D60
:1038F0001B78FF2B03D1BB6805221A7202E0BB685C
:103900000A221A72BB680F22BA1812781A74BB689E
:10391000BA1D12785A7400231800BD4604B080BD49
:10392000F002002090B585B000AF0400080011003F
:103930003B60FB1D221C1A70BB1D021C1A707B1DF4
:103940000A1C1A70BB1D1B78032B01D9002339E018
:10395000FB1D1B781B09DAB20F217B1802321A708B
:103960007B181B781033180027F034FD0300BB6070
:10397000BB68002B01D1002324E0BB1D1A78130083
:103980001B019B1A9B009B1A104A9B18BA681100D6
:10399000180005F031FBBB683A68DA607B1D1B78C4
:1039A000FF2B03D1BB6805221A7202E0BB680A2212
:1039B0001A72BB68FA1D12781A74BB687A1D1278E5
:1039C0005A74BB681800BD4605B090BDF0020020D7
:1039D00090B585B000AF040008003A601900FB1DE7
:1039E000221C1A70BB1D021C1A707B1D0A1C1A7047
:1039F0000F203B18B0221A703C68BB1D1A78FB1DC3
:103A000019783B1818782300FFF78CFF0300BB6080
:103A1000BB68002B01D1012331E0BB687A1D12780D
:103A20009A74BB680022DA74BB681033043307222F
:103A30000021180028F0ACF82023FB181B78002B7D
:103A400006D1BB680022DA76BB6800221A7715E03F
:103A50002023FB181B78012B08D1BB680122DA76E2
:103A6000BB681B33013300221A7007E0BB680222D7
:103A7000DA76BB681B33013300221A70002318006A
:103A8000BD4605B090BDF0B589B000AFBA607B60AF
:103A90000F257B19021C1A700E203B180A1C1A7085
:103AA0001F26BB19BF221A70BC683B181A787B19F5
:103AB0001978BB1918782300FFF734FF0300BB61A6
:103AC000BB69002B01D1012330E01F23FB181B78B9
:103AD0001B09DAB217257B1902321A70BB6912333F
:103AE00018007B191B78023B1A00002128F050F8BF
:103AF000BB6912331C007B681800FCF78FFB0200C7
:103B00007B191B78023B9A4205D27B681800FCF7B0
:103B100085FB020004E01723FB181B78023B1A0008
:103B20007B681900200028F0D1F800231800BD465A
:103B300009B0F0BD90B585B000AF040008003A6050
:103B40001900FB1D221C1A70BB1D021C1A703B1DA4
:103B50000A1C1A800F203B183F221A703C68BB1DBC
:103B60001A78FB1D19783B1818782300FFF7DAFE46
:103B70000300BB60BB68002B01D1012313E03B1D98
:103B80001B88DAB2BB689A743B1D1B881B0A9AB269
:103B9000BB6812330133D2B21A70BA682023FB1803
:103BA0001B78137500231800BD4605B090BD90B575
:103BB00085B000AF040008003A601900FB1D221C0C
:103BC0001A70BB1D021C1A707B1D0A1C1A700F2074
:103BD0003B1810221A703C68BB1D1A78FB1D19781F
:103BE0003B1818782300FFF79DFE0300BB60BB68FD
:103BF000002B01D1012304E0BB687A1D12789A746E
:103C000000231800BD4605B090BD90B585B000AF4B
:103C1000040008003A601900FB1D221C1A70BB1D2D
:103C2000021C1A707B1D0A1C1A700F203B182022E0
:103C30001A703C68BB1D1A78FB1D19783B18187860
:103C40002300FFF76FFE0300BB60BB68002B01D1B0
:103C5000012309E0BB687A1D12789A74BA682023A0
:103C6000FB181B78D37400231800BD4605B090BD27
:103C7000B0B596B000AF0200FB1D1A7000237B6543
:103C80005223FB1800221A70FB1D1B78032B00D94E
:103C9000D0E0FB1D1A7813001B019B1A9B009B1A96
:103CA000664A9B18FB640823FB18FA1D12781A70E9
:103CB0005323FB1801221A70FB6CBB64BB6C1A788F
:103CC000597809020A43997809040A43DB781B06EC
:103CD00013433B6452E052217B181A787B1801325F
:103CE0001A707B181B78082B03D93B6C5B7CFF2B6D
:103CF0004AD13B6C1B7C1B09DAB247243B190232C8
:103D00001A7053257B191A783B191B78D318302B5E
:103D10003CD87B191B780822BA18D0183B6C10339A
:103D200019003B191B781A0027F0D0FF7B1979196D
:103D30003A19097812788A181A703B6C1B7A002B92
:103D400006D13B6C180005F01BFA3B6C7B6504E068
:103D50003B6C1A7A013AD2B21A723B6C1A004023B9
:103D6000FB181900100005F09CFA7B6D002B05D0A4
:103D70007B6D180027F038FB00237B653B6C1A0035
:103D8000BB6C9342A7D102E0C04600E0C04653237B
:103D9000FB181B78012B03D1FB6C00221A724AE03E
:103DA00053217B181B780133DAB2FB6C5A72FB6C1F
:103DB00034229A72FB6C0B3318000C007B181A78B3
:103DC0000823FB18190027F081FF3B191B780233E9
:103DD000DAB2FB6C1A7238217B18FA1D12781A704D
:103DE0007B1800225A707B1808229A70FB6C1A7A92
:103DF0007B18DA70FB6C09331A007B185A60462571
:103E00007C197B181A000121002014F069FE0300C0
:103E100023707B191B78002B07D07B191A78084B6D
:103E20001100180027F060FC05E0064B180027F091
:103E3000CBFC00E0C046BD4616B0B0BDF00200208D
:103E4000A0E30610ECE3061090B58BB000AF0400C1
:103E5000080011003B60FB1D221C1A70BB1D021CD8
:103E60001A707B1D0A1C1A7000237B62FB1D1B78D5
:103E7000032B00D970E03B6801331B78342B6DD1E4
:103E80000F23FA18BB1D1978FB1D1B78180000F0D2
:103E90006DF8031E64D1FB1D1A7813001B019B1AD9
:103EA0009B009B1A304A9B18FB61FB69BB61BB6995
:103EB0001A78597809020A43997809040A43DB7889
:103EC0001B0613433B613B6802333B6237E03B69AF
:103ED0005A7C0F217B181B789A421FD13B69DB6803
:103EE000002B08D03B69DB687A1811783C6AFA1D10
:103EF0001078220098473B69180005F041F93B69AA
:103F00007B623B6A1B781B09DAB217217B180232ED
:103F10001A707B181B783A6AD3183B623B691A0007
:103F20001023FB181900100005F0BBF97B6A002B69
:103F300005D07B6A180027F057FA00237B623B69A3
:103F40001A00BB6993420CD07B1D1B783A68D318CA
:103F50003A6A9A42BBD304E0C04602E0C04600E0A1
:103F6000C046BD460BB090BDF002002080B588B0C1
:103F700000AF3A60FB1D021C1A70BB1D0A1C1A70B0
:103F80001B23FB18FF221A70FB1D1B78032B01D982
:103F9000012349E0FB1D1A7813001B019B1A9B00AB
:103FA0009B1A234A9B187B617B690B333B617B69BE
:103FB0001A7A0F23FB18023A1A703B690133FB612E
:103FC00029E01B217B181B785BB2DBB20133DAB22C
:103FD0007B181A707B1800229A56BB1D1B789A42D8
:103FE0000CD1FB6901331B78FF2B01D101231BE0AE
:103FF000FB695A783B681A70002315E0FB691B784F
:104000001B09DAB20E217B1802321A707B181B785A
:10401000FA69D318FB610F23FB181B783A69D31890
:10402000FA699A42CDD301231800BD4608B080BD7D
:10403000F002002080B582B000AF78600A00BB1C9F
:104040001A801A4B1B78DBB2002B2BD1184B1B8824
:104050009BB2FE2B27D8174B1B78002B04D07B6814
:104060001B78180027F050FB7B681B780D2B0CD1B8
:104070000F4B1B889BB21A000F4B002199540B4B1E
:1040800001221A70FEF72EFC0DE0094B1B889BB233
:104090005A1C91B2064A11801A007B681978064BA7
:1040A000995400E0C046BD4602B080BDDF04002048
:1040B000DC040020DE040020DC03002080B584B096
:1040C00000AF3A60FB1D021C1A70BB1D0A1C1A705F
:1040D0003B681B781B09DAB20B23FB1802321A70FB
:1040E000FB1D1978BB1D1A78104B180027F0FCFA3D
:1040F0000023FB600CE0FB683A68D3181B781A00B9
:104100000B4B1100180027F0EFFAFB680133FB603E
:104110000B23FB181B78FA689A42ECDB0A2027F085
:10412000F3FAC046BD4604B080BDC04628E4061080
:1041300048E4061090B587B002AF3A60FB1D021C40
:104140001A70BB1D0A1C1A700F23FB1800221A706C
:104150000C243B1900221A803A68BB1D1978FB1DFC
:104160001B781800FFF7AAFF3B681B78102B0DD1B6
:104170003B6801331B781AB23B6802331B781B0281
:104180001BB213431AB23B191A8003E00F23FB182A
:1041900001221A70FB1D1978BB1D1A780F23FB181A
:1041A0001C780C23FB181B8804480093230027F07D
:1041B0009BFAC046BD4605B090BDC04650E406100F
:1041C00080B584B000AF3A60FB1D021C1A70BB1DA5
:1041D0000A1C1A703A68BB1D1978FB1D1B78180061
:1041E000FFF76CFF3B681B78012B04D10F23FB18F2
:1041F00000221A7003E00F23FB1801221A70FB1D26
:104200001978BB1D1A780F23FB181B78034827F079
:104210006BFAC046BD4604B080BDC0466CE40610D3
:1042200080B584B000AF3A60FB1D021C1A70BB1D44
:104230000A1C1A703A68BB1D1978FB1D1B78180000
:10424000FFF73CFF3B681B780F2B04D10F23FB18B3
:1042500000221A7003E00F23FB1801221A70FB1DC5
:104260001978BB1D1A780F23FB181B78034827F019
:104270003BFAC046BD4604B080BDC04680E406108F
:1042800080B584B000AF3A60FB1D021C1A70BB1DE4
:104290000A1C1A703A68BB1D1978FB1D1B781800A0
:1042A000FFF70CFF3B681B780F2B04D10F23FB1883
:1042B00000221A7003E00F23FB1801221A70FB1D65
:1042C0001978BB1D1A780F23FB181B78034827F0B9
:1042D0000BFAC046BD4604B080BDC04694E406104B
:1042E000B0B586B002AF3A60FB1D021C1A70BB1D50
:1042F0000A1C1A700C23FB1800221A803B681B78DA
:104300001B09DAB20B243B1901321A700A257B19FA
:104310003A6852781A703A68BB1D1978FB1D1B78F1
:104320001800FFF7CBFE3B191B78032B03D17B1939
:104330001B78002B04D00F23FB1801221A701DE0FC
:104340003B681B781A000F2313400E2B12D10F234A
:10435000FB1800221A703B6802331B781AB23B68C4
:1043600003331B781B021BB213431AB20C23FB1836
:104370001A8003E00F23FB1801221A70FB1D197825
:10438000BB1D1A780F23FB181C780C23FB181B8805
:1043900004480093230027F0A7F9C046BD4604B0A7
:1043A000B0BDC046ACE4061090B587B002AF3A602D
:1043B000FB1D021C1A70BB1D0A1C1A700E243B192F
:1043C00000221A703A68BB1D1978FB1D1B78180073
:1043D000FFF774FE3B681B78112B08D10F23FB18E5
:1043E00000221A703B193A6892781A7003E00F2382
:1043F000FB1801221A70FB1D1978BB1D1A780F23B8
:10440000FB181C780E23FB181B780448009323002C
:1044100027F06AF9C046BD4605B090BDC4E4061059
:1044200090B5A1B002AF9E499E4B0322180027F021
:10443000B7FB031E13D101237B659B4B5422BA1893
:104440009A49180027F080FA7B6D012B01D90123CE
:1044500021E17B6DDAB2964B1A7000231BE195497E
:10446000904B0822180027F09BFB031E1FD1924897
:104470005823FB185C22BA18904927F065FA03000C
:104480003B663B6E022B02D1FB6D032B01D901234E
:1044900001E1FB6DDBB2BA6DD1B2894A1800FFF7BA
:1044A000E5F9031E01D10023F5E00123F3E085497E
:1044B0007C4B0722180027F073FB031E26D182488D
:1044C0005823FC185C23FA1880495023FB180093EA
:1044D000230027F039FA03007B667B6E032B02D1A1
:1044E000FB6D032B01D90123D5E0FB6DD8B2BB6D69
:1044F000D9B23B6DDBB2764A00930023FFF785FB10
:10450000031E01D10023C6E00123C4E07149654BBD
:104510000722180027F044FB031E29D16A485823BC
:10452000FC185C23FA186C494C23FB1800932300F9
:1045300027F00AFA0300BB66BB6E032B05D1FB6DA7
:10454000032B02D8FB6C022B01D90123A3E0FB6DE6
:10455000D8B2BB6DD9B2FB6CDBB2604A00930023CA
:10456000FFF736FA031E01D1002394E0012392E005
:104570005B494C4B0722180027F012FB031E22D187
:1045800051485823FC185C23FA1856493B1D0093E8
:10459000230027F0D9F90300FB66FB6E032B02D141
:1045A000FB6D032B01D9012375E0FB6DD8B2BB6D08
:1045B000D9B23B1D4C4AFFF766FA031E01D1002316
:1045C00069E0012367E04949364B0922180027F0CA
:1045D000E7FA031E33D146485823FC185C23FA1827
:1045E00044494423FB1801934823FB1800932300FC
:1045F00027F0AAF903003B673B6F042B0AD1FB6D40
:10460000032B07D8BA6CFA239B009A4202D27B6C28
:10461000632B01D901233EE0FB6DD8B2BB6DD9B24B
:10462000BB6C9CB27B6CDBB2334A00932300FFF778
:1046300081FA031E01D100232DE001232BE02F4935
:10464000184B0822180027F0ABFA031E22D11A4893
:104650005823FB185C22BA18184927F075F9030093
:104660007B677B6F022B05D1FB6D032B02D8BB6DE3
:10467000FF2B01D101230EE0FB6DD8B2BB6DD9B287
:104680001F4A0023FFF793FA031E01D1002302E023
:10469000012300E001231800BD461FB090BDC046B5
:1046A000DCE40610DC030020DF030020E0E4061059
:1046B000DE040020E4E40610E4030020F0E4061029
:1046C00035410410F8E40610E303002000E506106D
:1046D000A94304100CE5061014E50610C1410410AE
:1046E00020E5061028E506102142041038E50610E2
:1046F000E503002044E506108142041050E5061051
:10470000E142041080B500AFFFF78AFE031E04D11A
:10471000084B180027F058F803E0074B180027F063
:1047200053F8064B00221A80054B00221A70C0462F
:10473000BD4680BD5CE5061060E50610DC04002087
:10474000DF04002080B500AF03F020FC074B190008
:10475000002003F079FD064B1900012003F074FDE1
:10476000044B024A1A60C046BD4680BDE0040020EA
:10477000F004002000050020F0B589B002AFB96058
:1047800011007B600F243B19021C1A700C23FB18CC
:104790000A1C1A803B191B78022B03D11A4B1B4AA7
:1047A0001A6002E0184B1A4A1A60174B186817264D
:1047B000BC19BD680C23FB181B889C460F23FB18F3
:1047C00019787B680193282308229B18DB191B8822
:1047D00000932B00624603F0D9FD03002370BB1940
:1047E0001B78002B01D1002309E01723FB181B784D
:1047F000022B02D101235B4201E002235B4218003D
:10480000BD4607B0F0BDC04600050020F004002002
:10481000E0040020B0B586B002AF0400080011002B
:104820003B60FB1D221C1A70BB1D021C1A703B1D35
:104830000A1C1A80BB1D1B78022B07D12E4B2F4A56
:104840001A600E23FB1801221A7006E02A4B2C4A2C
:104850001A600E23FB1800221A70FB1D1B78022B16
:1048600012D1254B18680F23FC182023FB181D8834
:104870003A683B1D19880C23FB1800932B0003F0AA
:1048800051FD0300237021E0FB1D1B78002B08D194
:10489000194B1A680E23FB181B781100180003F03F
:1048A000D3FC154B18680F23FC183D683B1D1A8874
:1048B000BB1D19780C23FB1801932023FB181B88C0
:1048C00000932B0003F0F4FC030023700F23FB186C
:1048D0001B78002B01D1002309E00F23FB181B7864
:1048E000042B02D103235B4201E002235B42180048
:1048F000BD4604B0B0BDC04600050020F004002055
:10490000E004002090B585B000AF39601100BB1DF8
:10491000021C1A803B1D0A1C1A800E4B18683B1D96
:104920001C883A68BB1D1988230002F0F7FC0300BD
:10493000FB60FB68002B01D1002307E0FB68002B24
:1049400002DA3B1D1B8801E003235B421800BD46D1
:1049500005B090BD0005002080B582B000AF020018
:10496000FB1D1A70FB1D1B78022B0AD10B4B1A681A
:104970000B4B9A420DD0094B1B68180003F06CFDDD
:1049800008E0FB1D1B78032B04D1002003F072FD0F
:1049900000E0C046BD4602B080BDC0460005002014
:1049A000F004002080B584B000AFF860B9607A6090
:1049B0007A68B968FB681800FBF7A4FBC046BD46DF
:1049C00004B080BD80B584B000AFF860B9607A6093
:1049D0007A68B968FB68180027F0DAF8C046BD4667
:1049E00004B080BD80B584B000AFF860B9607A6073
:1049F0007A68B968FB68180027F0BCF80300180053
:104A0000BD4604B080BD90B589B000AFF860B96014
:104A10007A6010243B19180004F03EFA21007B183C
:104A20001A78FB681A707B185A78BB681A707B1862
:104A30009A787B681A70C046BD4609B090BD80B5B3
:104A400084B000AFF860B9607A607A68B968FB68D2
:104A5000180001F0A9FFC046BD4604B080BD80B576
:104A600082B000AF78607B68180028F019FC030062
:104A70001800BD4602B080BD80B584B000AFF860BC
:104A8000B9607A607A68B968FB68180028F09EFA05
:104A900003001800BD4604B080BD80B584B000AFEF
:104AA000F860B9607A607A68B968FB68180028F025
:104AB000C1FB03001800BD4604B080BD80B582B0C4
:104AC00000AF78607B68180002F01EFAC046BD4651
:104AD00002B080BD80B582B000AF78607B681800FE
:104AE00002F02CFAC046BD4602B080BD80B582B04F
:104AF00000AF0200FB1D1A70FB1D1B785BB2180093
:104B000004F09AF803001800BD4602B080BD80B5DD
:104B100082B000AF0200FB1D1A70FB1D1B7818004D
:104B200004F0EEF803001800BD4602B080BD80B569
:104B300000AF04F019F903001800BD4680BD80B530
:104B400000AF04F017F903001800BD4680BD80B522
:104B500082B000AF0200FB1D1A70FB1D1B7818000D
:104B600004F00EF9C046BD4602B080BD80B500AF6E
:104B700006F0C8FA03001800BD4680BD80B500AF3E
:104B800004F0CAF903001800BD4680BD80B500AF2F
:104B900006F0F8FF02000B0010001900BD4680BDB2
:104BA00080B584B000AFF8603A607B603A687B689B
:104BB000F968080006F0F8FF03001800BD4604B0CD
:104BC00080BD80B582B000AF78607B68180007F0C8
:104BD00005F8C046BD4602B080BD80B582B000AFCA
:104BE000786008001100FB1C021C1A70BB1C0A1C18
:104BF0001A70BB1C1A78FB1C19787B68180006F029
:104C0000ABFE0300DBB21800BD4602B080BD80B52C
:104C100000AF06F0F1FE0300DBB21800BD4680BD18
:104C200080B582B000AF78607B68180006F080FE27
:104C300002000B0010001900BD4602B080BD80B517
:104C400000AF06F04DFFC046BD4680BD80B582B0C6
:104C500000AF7860074B5B687F22934319007B6845
:104C60007F221A40034B0A435A60C046BD4602B039
:104C700080BDC046C000002080B500AF044B5A681C
:104C8000034B80210A435A60C046BD4680BDC046E2
:104C9000C000002080B500AF044B5A68034B802150
:104CA0008A435A60C046BD4680BDC046C000002051
:104CB00080B582B000AF7860074B1B69074A13408C
:104CC00019007B681B02064A1A40034B0A431A610B
:104CD000C046BD4602B080BDC0000020FF0000F00D
:104CE00000FFFF0F80B582B000AF02003960FB1DEE
:104CF0001A70FB1D1B785C2253430B4A9446634495
:104D00001B683F22934319003B683F221A40FB1D5A
:104D10001B785C2043430448844663440A431A607A
:104D2000C046BD4602B080BDDC00002080B582B028
:104D300000AF0200FB1D1A70FB1D1B785C22534361
:104D4000084A944663441A68FB1D1B785C214B4358
:104D500004498C46634440210A431A60C046BD465C
:104D600002B080BDDC00002080B582B000AF020040
:104D7000FB1D1A70FB1D1B785C225343084A9446A6
:104D800063441A68FB1D1B785C214B4304498C4625
:104D9000634440218A431A60C046BD4602B080BDCC
:104DA000DC00002080B582B000AF0200FB1D1A704D
:104DB000FB1D1B785C225343084A944663441A68DF
:104DC000FB1D1B785C214B4304498C4663448021C6
:104DD0000A431A60C046BD4602B080BDDC00002018
:104DE00080B582B000AF0200FB1D1A70FB1D1B785E
:104DF0005C225343084A944663441A68FB1D1B789F
:104E00005C214B4304498C46634480218A431A60E9
:104E1000C046BD4602B080BDDC00002080B582B037
:104E200000AF0200FB1D1A70FB1D1B785C22534370
:104E3000074A944663441B6880221340802B01D1AB
:104E4000012300E000231800BD4602B080BDC0462B
:104E5000DC00002080B582B000AF02003960FB1D8D
:104E60001A70FB1D1B785C2253430C4A9446634422
:104E70001B680B4A134019003B681A02FC239B0174
:104E80001A40FB1D1B785C2043430448844663445E
:104E90000A431A60C046BD4602B080BDDC00002057
:104EA000FFC0FFFF80B582B000AF0200FB1D1A708B
:104EB000FB1D1B785C225343054A944663441B68E0
:104EC0001B0A3F2213401800BD4602B080BDC046F9
:104ED000DC00002080B582B000AF0200FB1D1A701C
:104EE000FB1D1B785C225343094A944663441A68AD
:104EF000FB1D1B785C214B4305498C466344802194
:104F000009024A401A60C046BD4602B080BDC04694
:104F1000DC00002080B582B000AF0200FB1D1A70DB
:104F2000FB1D1B785C225343094A944663441A686C
:104F3000FB1D1B785C214B4305498C466344802153
:104F400089030A431A60C046BD4602B080BDC04610
:104F5000DC00002080B582B000AF0200FB1D1A709B
:104F6000FB1D1B785C225343084A944663441A682D
:104F7000FB1D1B785C214B4304498C466344044968
:104F80000A401A60C046BD4602B080BDDC00002069
:104F9000FFFFDFFF80B582B000AF02003960FB1D6C
:104FA0001A70FB1D1B785C2253430C4A94466344E1
:104FB0001B680B4A134019003B681A06E023DB0408
:104FC0001A40FB1D1B785C2043430448844663441D
:104FD0000A431A60C046BD4602B080BDDC00002016
:104FE000FFFFFFF880B582B000AF0200FB1D1A7012
:104FF000FB1D1B785C225343054A944663441B689F
:105000001B0E072213401800BD4602B080BDC046EB
:10501000DC00002080B582B000AF02003960FB1DCB
:105020001A70FB1D1B785C2253430C4A9446634460
:105030001B680B4A134019003B68DA0680231B05E6
:105040001A40FB1D1B785C2043430448844663449C
:105050000A431A60C046BD4602B080BDDC00002095
:10506000FFFFFFF780B582B000AF02003960FB1D83
:105070001A70FB1D1B785C2253430C4A9446634410
:105080001B680B4A134019003B681A07E023DB0535
:105090001A40FB1D1B785C2043430448844663444C
:1050A0000A431A60C046BD4602B080BDDC00002045
:1050B000FFFFFF8F80B582B000AF0200FB1D1A70AA
:1050C000FB1D1B785C225343054A944663441B68CE
:1050D0001B0F072213401800BD4602B080BDC0461A
:1050E000DC00002080B582B000AF02003960FB1DFB
:1050F0001A70FB1D1B785C225343084A9446634494
:105100005B68FB1D1B785C225343044A944663444E
:105110003A685A60C046BD4602B080BDDC0000203F
:1051200080B582B000AF02003960FB1D1A70FB1D14
:105130001B785C225343084A944663449B68FB1DDA
:105140001B785C225343044A944663443A689A604D
:10515000C046BD4602B080BDDC00002080B582B0F4
:1051600000AF02003960FB1D1A70FB1D1B785C222A
:105170005343084A944663449B69FB1D1B785C2299
:105180005343044A944663443A689A61C046BD4614
:1051900002B080BDDC00002080B582B000AF02000C
:1051A0003960FB1D1A70FB1D1B785C2253430B4AB0
:1051B00094466344DB69FF22934319003B68FF2256
:1051C0001A40FB1D1B785C2043430448844663441B
:1051D0000A43DA61C046BD4602B080BDDC00002053
:1051E00080B582B000AF0200FB1D1A70FB1D1B785A
:1051F0005C225343044A94466344DB69FF22134014
:105200001800BD4602B080BDDC00002080B582B031
:1052100000AF02003960FB1D1A70FB1D1B785C2279
:1052200053430B4A94466344DB69FF221340190041
:105230003B681A02FB1D1B785C20434304488446EC
:1052400063440A43DA61C046BD4602B080BDC04631
:10525000DC00002080B582B000AF0200FB1D1A7098
:10526000FB1D1B785C225343054A94466344DB696B
:105270001B0A1B021B0A1800BD4602B080BDC046B7
:10528000DC00002080B582B000AF02003960FB1D59
:105290001A70FB1D1B785C2253430B4A94466344EF
:1052A0001B6A1B0C19043B681B041A0CFB1D1B78A2
:1052B0005C2043430448844663440A431A62C04660
:1052C000BD4602B080BDC046DC00002080B582B083
:1052D00000AF0200FB1D1A70FB1D1B785C225343BC
:1052E000044A944663441B6A1B041B0C1800BD4609
:1052F00002B080BDDC00002080B582B000AF0200AB
:10530000FB1D1A70FB1D1B785C225343094A94460F
:1053100063441A6AFB1D1B785C214B4305498C468C
:105320006344802189050A431A62C046BD4602B023
:1053300080BDC046DC00002080B582B000AF020016
:10534000FB1D1A70FB1D1B785C225343084A9446D0
:1053500063441A6AFB1D1B785C214B4304498C464D
:10536000634404490A401A62C046BD4602B080BD8B
:10537000DC000020FFFFFFDF80B582B000AF02003D
:105380003960FB1D1A70FB1D1B785C225343084AD1
:10539000944663445B6AFB1D1B785C225343044ABA
:1053A000944663443A685A62C046BD4602B080BD26
:1053B000DC00002080B582B000AF0200FB1D1A7037
:1053C000FB1D1B785C225343034A944663445B6A8B
:1053D0001800BD4602B080BDDC00002080B582B060
:1053E00000AF02003960FB1D1A70FB1D1B785C22A8
:1053F00053430B4A944663449B6A1B0E19063B6851
:105400001B021A0AFB1D1B785C2043430448844698
:1054100063440A439A62C046BD4602B080BDC0469E
:10542000DC00002080B582B000AF02003960FB1DB7
:105430001A70FB1D1B785C2253430A4A944663444E
:105440009B6A1B02190A3B681A06FB1D1B785C202D
:1054500043430448844663440A439A62C046BD46B7
:1054600002B080BDDC00002080B582B000AF020039
:10547000FB1D1A70FB1D1B785C225343084A94469F
:105480006344DA6AFB1D1B785C214B4304498C465C
:10549000634480210A43DA62C046BD4602B080BD43
:1054A000DC00002080B582B000AF0200FB1D1A7046
:1054B000FB1D1B785C225343084A94466344DA6A16
:1054C000FB1D1B785C214B4304498C4663448021BF
:1054D0008A43DA62C046BD4602B080BDDC000020CF
:1054E00080B582B000AF0200FB1D1A70FB1D1B7857
:1054F0005C225343074A94466344DB6A802213408C
:10550000802B01D1012300E000231800BD4602B02A
:1055100080BDC046DC00002080B582B000AF020034
:105520003960FB1D1A70FB1D1B785C2253430B4A2C
:1055300094466344DB6A1F22934319003B681F2291
:105540001A40FB1D1B785C20434304488446634497
:105550000A43DA62C046BD4602B080BDDC000020CE
:1055600080B582B000AF0200FB1D1A70FB1D1B78D6
:105570005C225343044A94466344DB6A1F2213406F
:105580001800BD4602B080BDDC00002080B582B0AE
:1055900000AF02003960FB1D1A70FB1D1B785C22F6
:1055A00053430C4A94466344DB6A0B4A1340190088
:1055B0003B681A02FC239B011A40FB1D1B785C20F0
:1055C00043430448844663440A43DA62C046BD4606
:1055D00002B080BDDC000020FFC0FFFF80B582B0BC
:1055E00000AF0200FB1D1A70FB1D1B785C225343A9
:1055F000054A94466344DB6A1B0A3F2213401800A5
:10560000BD4602B080BDC046DC00002080B582B03F
:1056100000AF02003960FB1D1A70FB1D1B785C2275
:1056200053430A4A94466344DB6A1B04190C3B68E3
:105630001A04FB1D1B785C204343044884466344E2
:105640000A43DA62C046BD4602B080BDDC000020DD
:1056500080B582B000AF0200FB1D1A70FB1D1B78E5
:105660005C225343054A94466344DB6A1B0C1B04CB
:105670001B0C1800BD4602B080BDC046DC000020F7
:1056800080B582B000AF02003960FB1D1A70FB1DAF
:105690001B785C2253430B4A944663441B6B9B0D5F
:1056A00099053B689B029A0AFB1D1B785C204343CB
:1056B0000448844663440A431A63C046BD4602B0A8
:1056C00080BDC046DC00002080B582B000AF020083
:1056D000FB1D1A70FB1D1B785C225343044A944641
:1056E00063441B6B9B029B0A1800BD4602B080BD41
:1056F000DC00002080B582B000AF786039607B6844
:105700001B687B683A681A60C046BD4602B080BD1F
:1057100080B582B000AF786039607B685B68012239
:1057200093431A003B6801210B401A437B685A607F
:10573000C046BD4602B080BD80B582B000AF786083
:1057400039607B685B68042293431A003B689B00C6
:1057500004210B401A437B685A60C046BD4602B024
:1057600080BD80B582B000AF786039607B685B68CF
:10577000082293431A003B68DB0008210B401A43C0
:105780007B685A60C046BD4602B080BD80B582B01D
:1057900000AF786039607B685B68102293431A0021
:1057A0003B681B0110210B401A437B685A60C046BE
:1057B000BD4602B080BD80B582B000AF7860396070
:1057C0007B685B68202293431A003B685B012021C1
:1057D0000B401A437B685A60C046BD4602B080BD8C
:1057E00080B582B000AF78607B685B6840221A4366
:1057F0007B685A60C046BD4602B080BD80B582B0AD
:1058000000AF78607B685B6880221A437B685A60CF
:10581000C046BD4602B080BD80B582B000AF7860A2
:105820007B685B68802293431A007B685A60C0469D
:10583000BD4602B080BD000080B582B000AF786088
:1058400039607B685B68074A1A403B68190280230D
:105850005B000B401A437B685A60C046BD4602B0ED
:1058600080BDC046FFFEFFFF80B582B000AF78600C
:1058700039607B685B68074A1A403B68590280239D
:105880009B000B401A437B685A60C046BD4602B07D
:1058900080BDC046FFFDFFFF80B582B000AF7860DD
:1058A00039607B685B68074A1A403B68990280232D
:1058B000DB000B401A437B685A60C046BD4602B00D
:1058C00080BDC046FFFBFFFF80B582B000AF7860AF
:1058D00039607B689B687B683A689A60C046BD46C1
:1058E00002B080BD80B582B000AF78607B689B68F5
:1058F0001800BD4602B080BD80B582B000AF7860B0
:1059000039607B68DB681B0D1A053B681B031B0BAA
:105910001A437B68DA60C046BD4602B080BD80B5E0
:1059200082B000AF78607B68DB68802252031A4344
:105930007B68DA60C046BD4602B080BD80B582B0EB
:1059400000AF786039607B68DB68074A1A403B68C3
:1059500099058023DB030B401A437B68DA60C0465D
:10596000BD4602B080BDC046FFFFBFFF80B582B01C
:1059700000AF786039607B68DB68074A1A403B6893
:10598000D90580231B040B401A437B68DA60C046AC
:10599000BD4602B080BDC046FFFF7FFF80B582B02C
:1059A00000AF786039607B68DB68074A1A403B6863
:1059B000190680235B040B401A437B68DA60C046FB
:1059C000BD4602B080BDC046FFFFFFFE80B582B07D
:1059D00000AF78607B68DB68802292041A437B68A2
:1059E000DA60C046BD4602B080BD80B582B000AF6F
:1059F00078607B68DB688022D2041A437B68DA60B7
:105A0000C046BD4602B080BD80B582B000AF7860B0
:105A10007B68DB688022D2051A437B68DA60C04667
:105A2000BD4602B080BD80B582B000AF78607B68B3
:105A3000DB68802212061A437B68DA60C046BD46E6
:105A400002B080BD80B582B000AF7860C023DB05B6
:105A50005B68074A134019007B68064A1A40C02356
:105A6000DB050A435A60C046BD4602B080BDC04651
:105A70004F000200B0FFFDFF80B582B000AF78603C
:105A8000C023DB059B690822934319007B68DB0078
:105A900008221A40C023DB050A439A61C046BD466E
:105AA00002B080BD80B582B000AF7860C023DB0556
:105AB0009B690122934319007B6801221A40C0238D
:105AC000DB050A439A61C046BD4602B080BD80B581
:105AD00088B000AF786008001100FB1C021C1A702F
