:020000041004E6
:1000000000000120416604106924041077240410C4
:1000100000000000000000000000000000000000E0
:100020000000000000000000000000008124041017
:1000300000000000000000008B2404109524041030
:10004000A5660410A5660410A5660410A566041034
:10005000000000000000000000000000A566041081
:10006000A5240410A5660410A5660410A566041056
:10007000A5660410E12404100000000031250410DE
:10008000A5660410A56604101525041000000000E4
:10009000072504100000000000000000F9240410EF
:1000A000A566041023250410A5660410A566041097
:1000B000A566041000000000000000000000000021
:1000C00010B5904216D98AB2030C090C0C4659435C
:1000D00080B25343444350431B191A041B0C10189D
:1000E000594180225203002312184B41520DD8026D
:1000F000104310BD4843802252031218520D10467F
:1001000010BDC0468B0707D0013A22D30B780131CE
:10011000037001308B07F7D1830730D0DB4219D051
:100120000138043A08D308C943701B0A43801B0CEA
:1001300003710430043AF6D2D20707D30B88437018
:1001400001D08A78C2701B0A8370704701D00B7887
:1001500043707047043A06D308C903801B0C4380E0
:100160000430043AF8D2D20705D30B88038005D0B7
:100170008B788370704701D00B780370704770B430
:10018000103A03D378C978C0103AFBD2530701D391
:1001900018C918C001D508C908C0D20704D30B88F4
:1001A000038002300231002A01D50B78037070BC45
:1001B0007047C046EFF31482EFF30981154880F3CE
:1001C0001488BFF36F8FF0B543464C4655465E46E4
:1001D0006746F8B4104CEFF30883636006B4BFF3CE
:1001E0004F8F30BFC046C0460B4C646884F308880C
:1001F00082B003BCF8BC9846A146AA46B346BC46AA
:10020000F0BC04BC80F3098881F31488BFF36F8FBE
:100210001047C046000000000400002002780B7860
:10022000002A03D0013001319A42F7D0D01A70472A
:1002300003B47146490840004900095E49008E44F4
:1002400003BC7047002243088B4274D303098B42DE
:100250005FD3030A8B4244D3030B8B4228D3030C96
:100260008B420DD3FF22090212BA030C8B4202D338
:100270001212090265D0030B8B4219D300E0090A60
:10028000C30B8B4201D3CB03C01A5241830B8B4269
:1002900001D38B03C01A5241430B8B4201D34B0352
:1002A000C01A5241030B8B4201D30B03C01A5241B7
:1002B000C30A8B4201D3CB02C01A5241830A8B423C
:1002C00001D38B02C01A5241430A8B4201D34B0225
:1002D000C01A5241030A8B4201D30B02C01A524189
:1002E000CDD2C3098B4201D3CB01C01A524183093D
:1002F0008B4201D38B01C01A524143098B4201D377
:100300004B01C01A524103098B4201D30B01C01AA1
:100310005241C3088B4201D3CB00C01A524183081B
:100320008B4201D38B00C01A524143088B4201D348
:100330004B00C01A5241411A00D2014652411046A8
:100340007047FFE701B5002000F006F802BDC04687
:100350000029F7D076E770477047C0469140030008
:1003600090409C46203A9340194352426346D34002
:10037000194370478446100062468C461900634654
:1003800000E0C0461FB500F023FA002801D4002188
:10039000C8421FBD10B500F063F94042013010BDE6
:1003A00010B500F015FA002801DB002010BD012077
:1003B00010BDC04610B500F00BFA002801DD00208A
:1003C00010BD012010BDC04610B500F08DF9002809
:1003D00001DC002010BD012010BDC04610B500F0AA
:1003E00083F9002801DA002010BD012010BDC046AD
:1003F0001C2101231B04984201D3000C10391B0A55
:10040000984201D3000A08391B09984201D3000918
:10041000043902A2105C40187047C046040302026F
:10042000010101010000000000000000002B11D1BB
:10043000002A0FD1002900D1002802D00021C94391
:10044000080007B4024802A14018029003BDC0464C
:1004500009FFFFFF03B4684601B5029800F034F8C5
:10046000019B9E4602B00CBC7047C046F0B5CE461C
:100470009946030C9C46130447461B0C1D000E00B6
:1004800061460404240C80B50700100C4B436543FF
:10049000414360432C0CC01824188C46A34203D956
:1004A00080235B029846C444494679435643230C53
:1004B0002D042D0C8919634424046019C918C0BC8B
:1004C000B946B046F0BDC046F0B557464E46454623
:1004D000DE46E0B504000D009246994683B08B429B
:1004E00030D82DD04946504601F0B2F82900060018
:1004F000200001F0ADF8331A9846203B34D49B46D7
:1005000053465A46934042461F00534693401E00AE
:10051000AF423BD8AF4200D179E05B46A41BBD415E
:10052000002B00DA76E000220023009201930123E1
:100530005A4693400193012342469340009329E099
:100540008242CFD900220023009201930C9B002B02
:1005500001D01C605D600098019903B0F0BCBB46FF
:10056000B246A946A046F0BD42469B4620239B1AB0
:100570005246DA40414613004A468A401700424636
:100580001F43534693401E00AF42C3D900220023AD
:10059000009201934346002BD8D0FB0772081A4300
:1005A00046467B080EE0AB4201D1A2420CD8A41A09
:1005B0009D41012024196D410021013E24184D4127
:1005C000002E06D0AB42EED9013E24196D41002E1B
:1005D000F8D1009801995B4600196941002B24DB92
:1005E0002B005A464446D3402A00E2401C005B469A
:1005F0001500002B2ADB26009E40330026004746CC
:10060000BE403200801A9941009001919EE7A342BA
:10061000BCD882E74246202300219B1A0022009189
:1006200001920122DA40019285E7424620239B1A7B
:100630002A0046469A402300F340444613432A00CA
:10064000E2401C005B461500002BD4DA42462F0026
:100650002023260097409B1ADE403B003343CDE722
:10066000F0B55746DE464E464546E0B50D0004005F
:10067000E80F83460903D80F090B824619488C46B8
:100680001F0369005E00490D3F0B760D814218D0B3
:1006900086420FD00120B1420DD1BC450BD194420E
:1006A00009D1D3451CD0002905D160462043431E03
:1006B000984100E00120F0BCBB46B246A946A046E6
:1006C000F0BD01208E42F6D1614639430F00174339
:1006D0002743F0D15B465246981A431E9841EAE7F9
:1006E0000020E8E7FF070000F0B557464E464546B4
:1006F000DE46E0B50D000F03390B83B004008046E1
:1007000001915800E90F314F400D8C466E001903DE
:1007100082469146760D090BD80FBE421FD0BA45CE
:100720000FD0002E2FD15546019E3443002D27D1E6
:100730000A433AD0002C45D100281AD1012040426A
:1007400017E011433BD1002E02D1019F2743F3D084
:10075000844509D16346002BF0D0604609E0019F33
:1007600027432CD1B24524D063460220013B1840D8
:10077000013803B0F0BCBB46B246A946A046F0BD66
:10078000002CD9D0E4E75446002CEDD08445EBD1C1
:100790005645E9DCDEDB019B8B42E5D8DAD1C84562
:1007A000E2D80020C845E4D2D4E70020002CE0D0F5
:1007B000DAE7114303D18445D6D10020D9E70220DE
:1007C0004042D6E78445E6D0CEE7C046FF070000AA
:1007D000F0B557464E464546DE46E0B50D000F03E0
:1007E00004008046E80F390B844683B05800304F30
:1007F000400D01911E03690082469146490D360B5A
:10080000D80FB94220D0BA450FD000292BD1019979
:100810000C435146002937D1324338D0002C44D103
:10082000002819D10120404216E0164313D10029B7
:1008300002D1019F2743F3D0844520D06346022094
:10084000013B1840013807E0019F274303D18A4547
:10085000F4D116431FD0022003B0F0BCBB46B24611
:10086000A946A046F0BD5446002CE7D08445E5D10A
:100870005145E3DC03DB019BB342DFD80FD0634675
:10088000002BCFD06046E7E7002CC9D0D4E700208A
:10089000002CE1D0D2E78445D0D10020DCE7C84568
:1008A000CCD80020C845D7D2E9E78445E3D0C5E7D6
:1008B000FF070000F0B55746DE464E464546E0B518
:1008C0001F000B031B0B16009A46CA0F4B000400B7
:1008D000934687B05B0D00D1D5E0BB4A934200D16F
:1008E000F8E05146420FC9000A4380210904114330
:1008F000C2009146B54A8A469D1800239846029345
:100900003C037B00FA0F3000240B5B0D009200D1FA
:1009100096E0AD4A934231D0720FE4002243802426
:1009200024041443A94AF000944663445B195A1CFA
:100930000192424600260A2A42DC5A4600994A4061
:1009400093464246022A32DC013A012A00D949E1A3
:10095000022E00D1CAE0012E3DD100230024002246
:1009600010005A461B052343D2071343190007B052
:10097000F0BCBB46B246A946A046F0BD924B26430A
:10098000EB18002E00D1BBE00322414611435A462A
:10099000884600994A40802109018C46290061441B
:1009A000019141460A2900DD33E29346032642467F
:1009B00001279740A6213A00C9000A400F4231D0D2
:1009C000029E022E00D135E2032E00D1D2E1544620
:1009D0004846012EC1D0019A7D4B94466344002BBA
:1009E00000DCC0E0420709D00F220240042A05D0F3
:1009F000021D82428041404224181000E20106D5C7
:100A0000744B019A1C4080239446DB006344724A75
:100A100093426BDC6207C00864025B050243240B4F
:100A20005B0D9DE7902189000F4263D188223A42F5
:100A300000D1D7E0009BA2469B4681460296BFE7C5
:100A40002300334300D17FE0002C00D1ADE1200032
:100A5000FFF7CEFC020003000B3A1D201900821A9A
:100A600030000839D0408C400443300088405B4A55
:100A7000EB1A944663445A1C0192424600260A2A05
:100A800000DC5AE79CE753460343994654D053464B
:100A9000002B00D177E15046FFF7AAFC0B235B4205
:100AA0009C460200844411005046083988401D23AA
:100AB000804660461B1A2000D8400300404603438E
:100AC0009A4623008B4099460023444D9846AD1A20
:100AD000029315E752460243914626D100221D009B
:100AE0000223924608329046029309E7002400222E
:100AF000354B35E7002380249B462403324B2FE7F8
:100B00000222414611438022120194462A00624487
:100B1000884601920A2900DD52E75A4600200099D2
:100B200004004A40934602260BE70C221D000323D3
:100B3000814690460293E3E600239A4604339846A2
:100B4000033B00250293DBE6424601331A432B00A8
:100B500090465A1C019242460024002001260A2A8F
:100B600000DCEAE62CE70122D21A382A00DDF4E69E
:100B70001F2A00DC2AE11F214942CB1A2100D9405B
:100B80000B00202A05D0164A019D94466544AC40CE
:100B90002043421E904118430723190000240140BE
:100BA00003420CD00F230340042B00D140E1031D6E
:100BB0008342A4411800644261076402240BC20806
:100BC00000230A43CCE6C046FF07000001FCFFFFFC
:100BD000FF030000FFFFFFFEFE0700000DFCFFFF0C
:100BE0003E04000049464A460904090C0D00160C53
:100BF000020C0004000C4543AC4605007543A846B2
:100C000015000F007543009202952A00009D6F4366
:100C100065462D0CA94647444F44B84505D91500F3
:100C2000802252029046454402953D0C039565464C
:100C30002D043F042D0CAC463D0065440495250C65
:100C40002404240CAC4625007543A84665460F00D5
:100C50006943414489466743390C49446E4388459A
:100C600003D980225202904646440D0CA846350016
:100C700045440595039D3F04A8463F0C0904C91946
:100C800088444546039555462E04360C2F0C3500F6
:100C90004543784381463800A8462D0CAA46009A61
:100CA000504372434A445244914503D980256D0212
:100CB000A9464844150CA94645462D042D0CA846C6
:100CC00065467D43120448449044A9463200654677
:100CD00062436E437C43170C3619BF19BC4203D9DB
:100CE00080246402A446E144029C039EA446059D20
:100CF00066448E428941AC4612043C04120CA21890
:100D00006244494254184644A4464645A44182469A
:100D10006442A046AA4292418C458941E244D044B3
:100D2000494252420A43A045A44182458941644256
:100D300049420C4341463F0CD2191219CC0D04997B
:100D400070020843411E884141464A44F60D520252
:100D50003043490214430843D20135D501224308E8
:100D600002401343E0071843640834E6009BA246A0
:100D70009B4681468024534624031C4324034A4651
:100D80002E4B240BECE5FFF733FB15239C468444E4
:100D90000200634620321C2B00DC84E600239946C7
:100DA0002300083883409A468EE6FFF721FB0200B5
:100DB0000300153220331C2A00DC4EE6020034000A
:100DC000083A0020944052E6019304E61C4B2100AF
:100DD0009C460300019DD3406544A940194303008C
:100DE000AB40581E834119430800D4404B0709D03B
:100DF0000F230B40042B05D00B1D8B42804140423A
:100E000024181800230200D4D6E60123002400226F
:100E1000A6E50F29AAD1802352461B031A42A9D066
:100E20001C42A7D11C43009B02009B46034B97E545
:100E30000024C1E60024014B220091E5FF070000D9
:100E40001E040000F0B54E464546DE465746E0B566
:100E500085B0009001910C034F00CE0F610A009CF9
:100E6000B046640F0C4300997F0DC80011001A00B2
:100E70001B039C460091019251004B0D9946019B2A
:100E8000009DD90F63466A0F5B0A1343EA0094463C
:100E90009346C14A03900293914500D1CDE00125CC
:100EA00069404D467D1BAA468E4200D180E0002D50
:100EB00000DC35E34946002900D1DFE0974200D14C
:100EC00094E152460125382A19DC8022029B120443
:100ED0001343029352461F2A00DDE3E153462022CA
:100EE0006146029DD21A9540D9400D43614691401A
:100EF0000A00511E8A411543029ADA40A41A451B82
:100F0000A84280414042241A230200D43DE16402F9
:100F1000640A002C00D147E12000FFF769FA0300C2
:100F2000083B20212800CA1AD0409C4002009D4066
:100F300022439F4200DD77E1D81B0130091A2C00C3
:100F40008D40C4406B1E9D411300C2408B40254321
:100F5000002714001D436B0709D00F232B40042BDF
:100F600005D02B1DAB42AD416D4264191D0023021B
:100F700000D440E1884A0137974200D101E10126BF
:100F800043468649ED0821404A072A437C054D0225
:100F90002D0B640D1E4024052C43F607344310002E
:100FA000210005B0F0BCBB46B246A946A046F0BD44
:100FB000002D00DCD0E24946002900D0D4E0614693
:100FC000029B194300D12BE1691E012D00D1D9E10B
:100FD000954200D10AE10125382917DC8A4653469B
:100FE0001F2B00DDE7E12022D21A029B61469340CD
:100FF0001D005346D940634693401A000D43511ECD
:101000008A4153461543029ADA40A4182D188542A6
:10101000804140422418230200D4B6E05E4B0137E1
:101020009F4200D1ADE001215C4B6A081C40294081
:101030000A43E507154364088DE7594A029B924627
:101040006246BA441A432CD08E422ED05246002A11
:1010500060D0002F00D1DBE063460E00029CD80870
:1010600062070243E4081300234300D154E28025C1
:101070002D0325432D03484C2D0B8CE76146029B25
:10108000194300D1CCE029000139012D00D188E1BC
:10109000954200D1AAE00125382900DD2FE78A46D4
:1010A00018E7012251408E42D0D15346002B00D187
:1010B000BEE0002F00D038E1CA462200024300D132
:1010C000E2E15346591E012B00D10DE2324A92450E
:1010D00000D1D2E10127382913DC1F2900DDEEE120
:1010E0002022029B521A250007009A46CC409040CD
:1010F0009540CF40A244421E904153462F430743A0
:1011000002933D00654465459241029B52424F4621
:10111000D41880E7234A7D1C154200D0AAE062461D
:101120002500029B05431A43002F00D0F5E0002D57
:1011300000D16BE1002A00D152E16346C51A029B3F
:10114000E21AA8429B415B42D31A1A0200D4D5E1AD
:1011500063461D1AAC4592410126029B52421C1B5C
:101160008846A41A0E40F6E697423FD05246012523
:10117000382A00DD4AE78022029B120413430293BF
:101180002DE73C000025002205E707232B40002B1C
:1011900000D0E2E66BE0C046FF070000FFFF7FFFE4
:1011A00001F8FFFFFE0700002800FFF721F9030008
:1011B00018331F2B00DCB4E62A00083882409F4217
:1011C00000DDB9E0DB1B581C1F2800DCA0E1150086
:1011D0001F3BDD40202805D040231B1A9A40531E98
:1011E0009A411543072300272B40D0E7C008620728
:1011F0000243E40837E7EA0863071A43D34BE408DD
:101200009F4200D12FE72403250B7C05640DC2E625
:10121000CA462200024358D163460E00029C039343
:10122000039B5746DA08E7E7C94CFF1A144092E6D9
:10123000C84D7A1C2A4200D084E022000243002FCD
:1012400000D0EFE0002A00D1E5E0624602990A43AF
:1012500000D1C5E06346C5188C4685428041644490
:1012600040422418230202D5B94B01371C40BA462C
:101270000395D5E76246851AA842924152429146AB
:10128000029BE31A1A004B46D21A130091461A0227
:101290006CD44A464C462A4300D03AE60026002445
:1012A000002578E6029953460D00203AD540202BC0
:1012B00006D04022D21A0B00934062461A4393464E
:1012C0005B465A1E93411D4319E653465A1E012B95
:1012D00000D1C6E09D4EB24500D1BDE688460E0065
:1012E0000125382A10DC1F2A7FDC20212500891ADD
:1012F000070088408D40D740D440411E8841029B62
:101300003D431B1B054302936246551BAC4592416E
:10131000029B52424F469C1AF6E5002D00D0B7E0E2
:10132000002A00D1F0E001260E4063460298D90859
:1013300042070A43C40896E6854CFF1A1440620728
:10134000E40860E781498A4200D1C9E06346C118D8
:1013500081428041029B4042E3181B18DD075C0874
:10136000072349080D4317002B4010E763461D1A59
:10137000AC4592410126029B52421C1B8846A41A8E
:101380000E40C6E56346C518029B854280419C46D7
:101390004042644424180127230200D4F5E60227C2
:1013A00041E66346C51AA8428041029B4042E41AC6
:1013B0000127241AA8E5029D52462B00203AD3406B
:1013C00019005346202B06D04022D21A2B009340FE
:1013D00062461A4393465D466B1E9D410D4315E6DA
:1013E0006207C0080243E4080DE711002700203916
:1013F000CF40202A05D040218A1A94402500054379
:101400000395039D6A1E95413D437DE7002A00D167
:1014100044E701260E406346D908029B5A070A4357
:10142000DC08F0E6002A28D06246029FC0083A4352
:1014300000D1DCE6620710438022E4081203144264
:1014400009D0FD08154206D1634601262C00D808B4
:101450007B0718430E40420FC000C00852070243EA
:1014600001E663461D1AAC459241029B52421C1B89
:101470000E0088460127A41A46E56346D908029B58
:101480005A070A43DC08EEE56346029C0393C7E66D
:10149000C008002A00D1AAE6620710438022E408AF
:1014A00012031442D7D0029FFD081542D3D16346E0
:1014B0000126D8087B072C0018430E40CBE70A0012
:1014C0002700203AD740202905D04022521A9440C4
:1014D000250005430395039D6A1E95412F4310E6A1
:1014E00014000025002256E5029B604499466045A1
:1014F00092414C4452420500A4184CE71A001C00CB
:101500002A4300D0B3E6C9E6802400262403AEE5D2
:1015100020210025091A17E5002200250B4C3AE589
:10152000002D00D1F6E54B46DA1B9246002F00D184
:101530006FE6382A05DC80263604344388460E00E0
:10154000D1E688460E000125DEE6C046FF07000012
:10155000FFFF7FFFFE070000002D00D168E64B462D
:10156000D91B002F01D18A46A7E50127382900DDC4
:10157000C7E5802212041443AFE5C0460B00020009
:1015800070B5164D0C0382B0490000200092019303
:10159000240B490DDE0FA94204DD1148814203DD11
:1015A000104BF01802B070BD8020400320430E4C59
:1015B000641A1F2C08DD0D4B5B1AD84003005842FB
:1015C000002EEFD11800EDE7094B009A9C4603006E
:1015D00061448B40E2401343F1E7C046FE03000044
:1015E0001D040000FFFFFF7F330400001304000010
:1015F000EDFBFFFF70B5002816D0C317C5185D407E
:10160000C40F2800FEF7F4FE104B1B1A5B055B0DA0
:101610000A2814DC02002E00153296400B22121A02
:10162000D5402D032D0B03E00024002300250026C8
:101630001B052B43E40723433000190070BD0B3812
:1016400085402D0300262D0BF2E7C0461E04000046
:1016500010B5002903D1FEF7CBFE203002E00800D0
:10166000FEF7C6FE10BDC04680B582B000AF0200D6
:10167000FB1D1A70FB1D1B787F2B09D8FB1D1B78E7
:101680001A001F231A40044B012191400A001A60DE
:10169000C046BD4602B080BD00E100E090B583B019
:1016A00000AF02003960FB1D1A70FB1D1B787F2BF9
:1016B00028D82F4AFB1D1B785BB29B08C0339B00C8
:1016C0009B58FA1D1278110003220A40D200FF2114
:1016D00091400A00D2431A4011003B689B01FF224F
:1016E0001A40FB1D1B78180003230340DB009A40BF
:1016F0001F48FB1D1B785BB29B080A43C0339B004D
:101700001A5031E01B4AFB1D1B7819000F230B40B8
:10171000083B9B0806339B00D31804331B68FA1D53
:101720001278110003220A40D200FF2191400A00E2
:10173000D2431A4011003B689B01FF221A40FB1D57
:101740001B78180003230340DB009A400948FB1D67
:101750001B781C000F232340083B9B080A430633D9
:101760009B00C31804331A60C046BD4603B090BD49
:1017700000E100E000ED00E080B582B000AF7860ED
:10178000064B5B6D7A6813407A689A4201D1012357
:1017900000E000231800BD4602B080BD00004048B4
:1017A00080B586B000AF7860EFF31083BB60BB6894
:1017B0007B610123FB60FB6883F31088C0467B6874
:1017C0001B6820221A437B681A607B693B613B6976
:1017D00083F31088C046C046BD4606B080BD0000F9
:1017E00080B586B000AF7860002004F05CFF00F0A8
:1017F00061F800F067F808217B18E12212031A60F3
:101800007B1800225A607B1800221A817B18002264
:101810005A817B1800229A817B181900002008F059
:1018200099FE00F0C3F805F095FD031E01D000F00D
:10183000A3FC05F041F805F0FFF9104BDA688023AE
:101840009B05134003D00E4B18002EF0C3FC0B4B2E
:10185000DA6880235B05134003D00A4B18002EF092
:10186000B9FC01F0C1F90FF093FF002004F025FF4F
:1018700000231800BD4606B080BDC046040000200D
:10188000B8140710D414071080B582B000AFFB1D48
:1018900003221A708023DB011800FFF76DFF031E7F
:1018A00002D0FB1D02221A70FB1D1B781800BD46DA
:1018B00002B080BD80B500AF002008F0C9FCC04672
:1018C000BD4680BD80B582B000AF204B00221A70AB
:1018D0000121002008F06EFD80235B020121180029
:1018E0000AF0F2FC1A4B1A000021082010F0F6F85A
:1018F000FB1D00221A7021E0FB1D1A78134913000A
:101900009B009B18DB00CB181033124A1A60FB1D9A
:101910001978FB1D1A780B009B005B18DB000B4944
:1019200059180A4813009B009B18DB00C3181C338E
:101930001960FB1D1A78FB1D01321A70FB1D1B7804
:10194000002BD9D0C046BD4602B080BD5002002059
:10195000E13A04105919041080B584B000AF7860E2
:101960007B685B69FB60FB681B78180008F0BEFDB4
:101970000300D9B2FB6820229954FB681B785A1CDB
:10198000094B110018002EF0B5FBFB681B78002BEB
:1019900004D10021082010F0C5F800E0C046C04680
:1019A000BD4604B080BDC046F014071080B500AF3E
:1019B0000A4B1800FFF7F4FE01210820FFF76EFE26
:1019C0000820FFF751FE064B1B689868002302228F
:1019D00000212EF009FCC046BD4680BD00400041FC
:1019E000B410002080B582B000AF78600A00BB1C44
:1019F0001A80154B1B88FF2B21D87B681B780D2B79
:101A000012D1124A124B110018002EF073FB00F095
:101A100021F80D4B00221A8080235A000B4B002125
:101A200018002EF091FD0AE0074B1B885A1C91B25A
:101A3000054A11801A007B681978044B9954C046F6
:101A4000BD4602B080BDC046780300207802002069
:101A50000415071080B500AF194A1A4B1100180081
:101A6000FEF7DCFB031E0CD1174B18002EF0B2FB67
:101A7000164B2022002199540021082010F052F822
:101A80001AE0134A0F4B11001800FEF7C7FB031EA4
:101A90000CD1104B18002EF09DFB0C4B2022012185
:101AA00099540021082010F03DF805E0054A0A4B42
:101AB000110018002EF01EFBC046BD4680BDC0467A
:101AC0001415071078020020181507105002002086
:101AD000201507102C1507103815071080B500AF1A
:101AE00001235B4218000FF0F9FEC046BD4680BDE1
:101AF00080B500AFC046BD4680BDF0B593B000AF25
:101B00004723FB1800221A700CE047203B181A7874
:101B10003B1D92000021D150C0463B181A783B185B
:101B200001321A704723FB181B78092BEDD910F0EE
:101B300011FE031E5AD046257C19FFF7A5FE0300AF
:101B400023707B191B78002B50D04526BC190BF055
:101B500053FE030023704423FC1805F083F80300B0
:101B600023704323FA187B19B9190C781B78D8B263
:101B7000E1B2884200D9231C13704323FA18FB18E2
:101B8000442179180C781B78D8B2E1B2884200D988
:101B9000231C13704323FB181B78032B19D021DC63
:101BA000022B0DD01EDC002B1FD0012B1AD10121DE
:101BB00001200FF0FDFD012101200FF029FE11E0B1
:101BC000002101200FF0F4FD012101200FF020FE83
:101BD00008E0002101200FF0EBFD002101200FF0B3
:101BE00017FEC0460FF044FE00E0C046BD4613B0ED
:101BF000F0BD000080B582B000AF0200FB1D1A707E
:101C0000FB1D1A780E49202013009B009B18DB0057
:101C1000CB181B1800221A70FB1D1A7813009B00AA
:101C20009B18DB0008331A00054BD318FA22520028
:101C3000110018000BF0D2FFC046BD4602B080BDB7
:101C40005002002080B582B000AF78607A688023AF
:101C50005B02134002D00020FFF7CCFFC046BD4618
:101C600002B080BD80B582B000AF78600A00BB1CB6
:101C70001A80BB1C1B88012B03D10020FFF7BAFF81
:101C8000C046C046BD4602B080BD000080B500AF72
:101C9000BFF34F8FC046044B044ADA60BFF34F8F47
:101CA000C046C046FDE7C04600ED00E00400FA056E
:101CB00080B500AF044B1B689BB21B051B0D9BB28C
:101CC0001800BD4680BDC0461C1E001080B582B005
:101CD00000AF074B1B681A0BFB1D1A70FB1D1B780E
:101CE0005B42DBB25BB21800BD4602B080BDC046AD
:101CF0001C1E001080B582B000AF78607B681B6945
:101D00001800BD4602B080BD80B584B000AF7860D9
:101D1000074B196D064B7A680A431A65044B1B6D15
:101D20007A681340FB60FB68C046BD4604B080BDC6
:101D30000000404880B584B000AF7860074B596D13
:101D4000064B7A680A435A65044B5B6D7A68134008
:101D5000FB60FB68C046BD4604B080BD0000404843
:101D600080B582B000AF7860044B596B034B7A6842
:101D70000A435A63C046BD4602B080BD00004048D9
:101D800080B582B000AF7860054B5A6B7B68D94351
:101D9000034B0A405A63C046BD4602B080BDC046F0
:101DA0000000404880B584B000AF7860074B996D63
:101DB000064B7A680A439A65044B9B6D7A68134018
:101DC000FB60FB68C046BD4604B080BD00004048D3
:101DD00080B584B000AF7860074B196E064B7A6807
:101DE0000A431A66044B1B6E7A681340FB60FB685B
:101DF000C046BD4604B080BD0000404880B582B0FA
:101E000000AF7860064B1B6E7A6813407A689A427E
:101E100001D1012300E000231800BD4602B080BDBF
:101E20000000404880B582B000AF7860044B196C68
:101E3000034B7A680A431A64C046BD4602B080BDAF
:101E40000000404880B582B000AF7860054B1A6C46
:101E50007B68D943034B0A401A64C046BD4602B0B2
:101E600080BDC0460000404880B500AF08F0DAFDF4
:101E700000F014F800F049F800F0CAF800F076F825
:101E800000F092F800F05EF800F0D8F800F03AF9AF
:101E90000020FFF7A5FCFFF721FEFCE790B589B015
:101EA00000AF08243B19180018231A0000212EF057
:101EB0004BFB3B00180008231A0000212EF044FBC6
:101EC0003B1903221A603B19802252025A603B19C7
:101ED0001022DA603B1918000CF0B6FF031E01D087
:101EE00000F04AF93B0000221A603B0020225A60B1
:101EF0003B00002118000DF0F1F8031E01D000F0A6
:101F00003BF9C046BD4609B090BD80B586B000AF74
:101F10003B00180018231A0000212EF015FB3B008F
:101F200002221A603B00802252015A613B001800D5
:101F30000DF06AFA031E01D000F01EF9C046BD463E
:101F400006B080BD80B500AF064B074A1A60054B4E
:101F5000180009F0F3FF031E01D000F00DF9C04690
:101F6000BD4680BD7C0300200000304880B582B0B3
:101F700000AF00237B600120FFF740FF031E08D164
:101F80000120FFF74FFF0120FFF75CFF0120FFF763
:101F90001FFFC023DB057B603B1D18000AF070FCAF
:101FA000C046BD4602B080BD80B582B000AF3B00E8
:101FB000180008231A0000212EF0C6FA0120FFF7AE
:101FC0001DFF031E08D10120FFF72CFF0120FFF7A2
:101FD00039FF0120FFF7FCFEC0460C4B1800FFF74D
:101FE00089FE03000F2BF8D93B00A02252001A8073
:101FF0003B0000229A703B0000225A603B00180010
:102000000BF09EF9C046BD4602B080BD00180060CE
:1020100080B586B000AF0820FFF776FE0420FFF7FA
:1020200073FE04F054FB3B1D180014231A0000211A
:102030002EF08AFAC046BD4606B080BD80B586B097
:1020400000AF1020FFF7AEFE2020FFF7ABFE294BBC
:10205000294A1A60274B0722DA61264B04229A612B
:10206000244B02221A62234B802212025A62214B15
:10207000C022D2035A611F4B802212031A611D4BEA
:102080000122DA601B4B180008F0D8FF031E01D0B4
:1020900000F072F83B000C221A603B0000225A60EC
:1020A0003B0003229A603B000022DA603B000022E2
:1020B0001A613B00114A5A61FFF7FAFD03001A004A
:1020C0000F4B9A420BD0FFF701FE03001A003B00B2
:1020D0001A61FFF7EDFD03001A003B005A613A0058
:1020E000044B1100180009F053F9C046BD4606B074
:1020F00080BDC046880300200060004155050000F7
:10210000FF0F000080B500AF8023DB011800FFF750
:1021100011FE8023DB011800FFF722FE8023DB0184
:102120001800FFF72DFEC0460F4BDA6980235B00D5
:102130001A4080235B009A42F6D10C4B0C4A1A607D
:102140000A4B05225A60094B0A4ADA60074B094AD2
:102150009A60064B180009F08FFE031E01D000F0B4
:102160000BF8C046BD4680BD00004048C0030020BB
:1021700000300040FF0F000080B500AF72B6C046CF
:10218000FFF784FD80B584B000AF7860074B196D10
:10219000064B7A680A431A65044B1B6D7A68134034
:1021A000FB60FB68C046BD4604B080BD00004048EF
:1021B00080B584B000AF7860074B996D064B7A68A4
:1021C0000A439A65044B9B6D7A681340FB60FB6879
:1021D000C046BD4604B080BD0000404880B584B014
:1021E00000AF7860074B196E064B7A680A431A668F
:1021F000044B1B6E7A681340FB60FB68C046BD460B
:1022000004B080BD0000404880B582B000AF786067
:10221000064B1B6E7A6813407A689A4201D10123FB
:1022200000E000231800BD4602B080BD0000404819
:1022300080B582B000AF7860044B196C034B7A68AC
:102240000A431A64C046BD4602B080BD0000404843
:1022500080B582B000AF7860054B1A6C7B68D943BB
:10226000034B0A401A64C046BD4602B080BDC0465A
:102270000000404880B500AF00F0BCF8C046BD4645
:1022800080BD000080B582B000AF78607B681B68BD
:10229000094A93420CD180235B021800FFF772FFBA
:1022A000002201210D2009F035FA0D2009F047FA2E
:1022B000C046BD4602B080BD0000304890B589B030
:1022C00000AF786008243B19180018231A00002179
:1022D0002EF03AF97B681A68C023DB059A422DD1AB
:1022E0003B1901221A603B1904221A613B1918009C
:1022F0000DF08AF8031E01D0FFF73EFF0120FFF723
:1023000083FF031E08D10120FFF792FF0120FFF792
:102310009FFF0120FFF762FF04F0D9F9002200219E
:10232000122009F0F7F9122009F009FA0022002121
:10233000192009F0EFF9192009F001FAC046BD464D
:1023400009B090BD90B589B000AF78600C243B19FE
:10235000180014231A0000212EF0F6F87B681B6881
:10236000224A93423ED18023DB001800FFF720FF72
:102370000820FFF707FF0420FFF704FF3B190122A5
:102380001A603B1902225A603B1900229A603B19DD
:102390000022DA603B1900221A613B19144A190025
:1023A000100009F047FB21007B1802221A607B18FD
:1023B00002225A607B1800229A607B180022DA60A1
:1023C0007B1802221A617A189023DB05110018008D
:1023D00009F030FB00220121082009F09BF90820B8
:1023E00009F0ADF9C046BD4609B090BD00400041BE
:1023F0000000104880B500AF0F2100200AF026F839
:10240000F0231B01190000200AF05AF8064B1900AE
:1024100001200AF055F8054B190001200AF016F8C2
:10242000C046BD4680BDC046C930000036C0000071
:1024300080B582B000AF78607B68DB6920221340F2
:10244000202B01D1012300E000231800BD4602B07B
:1024500080BD80B582B000AF78607B685B6ADBB21C
:102460001800BD4602B080BD80B500AF09F077F915
:10247000C046BD4680BD80B500AF09F070F9FEE7EB
:1024800080B500AFC046BD4680BD80B500AFC04638
:10249000BD4680BD80B500AF08F024FBC046BD46F8
:1024A00080BD000080B582B000AF0C4B1800FFF774
:1024B000BFFF0300012B0CD1084B1800FFF7C9FF29
:1024C00003001A00FB1D1A70FB1D01211800FFF705
:1024D00089FAC046BD4602B080BDC04600400041FA
:1024E00080B500AF034B180009F084FDC046BD461F
:1024F00080BDC0467C03002080B500AF0CF0AEFA72
:10250000C046BD4680BD80B500AF0CF0B0FAC046F5
:10251000BD4680BD80B500AF0AF04AFDC046BD464D
:1025200080BD80B500AF0AF064FDC046BD4680BDE9
:1025300080B500AF9023DB050121180007F0F8FFFC
:10254000C046BD4680BD80B586B000AFF860B960BA
:102550007A6000237B610AE000E000BF0100BB68F5
:102560005A1CBA60CAB21A707B6901337B617A69FE
:102570007B689A42F0DB7B681800BD4606B080BDE0
:1025800080B586B000AFF860B9607A6000237B61E7
:1025900009E0BB685A1CBA601B78180008F01AF8EA
:1025A0007B6901337B617A697B689A42F1DB7B68E6
:1025B0001800BD4606B080BD80B582B000AF78601F
:1025C00001235B421800BD4602B080BD80B582B0D9
:1025D00000AF786039603B68802292015A60002326
:1025E0001800BD4602B080BD80B582B000AF7860F3
:1025F00001231800BD4602B080BD80B584B000AF95
:10260000F860B9607A6000231800BD4604B080BD50
:1026100080B586B000AF7860144A154BD31A7B6141
:102620007B693B61134B1B68002B02D1114B124A93
:102630001A60104B1A687B68D3183A699A4207D21D
:102640002DF0D8FF03000C221A6001235B4209E041
:10265000084B1B68FB60074B1A687B68D218054B58
:102660001A60FB681800BD4606B080BD000001205E
:10267000000C0000D0030020BC47002080B500AF54
:10268000BFF34F8FC046044B044ADA60BFF34F8F4D
:10269000C046C046FDE7C04600ED00E00400FA0574
:1026A00080B584B000AF7860074B596D064B7A68EF
:1026B0000A435A65044B5B6D7A681340FB60FB6804
:1026C000C046BD4604B080BD0000404880B582B021
:1026D00000AF7860054B5A6D7B68D943034B0A40C5
:1026E0005A65C046BD4602B080BDC04600004048A5
:1026F00080B500AF01F0A0FF06F062FD03000133DA
:1027000001D1FFF739FDC046BD4680BDF0B59BB095
:1027100004AF5723FB1800221A704423FB18002231
:102720001A6000229A805623FB1806221A70422350
:10273000FB1800221A800C26BA19DC4B1000190075
:1027400034231A002DF068FF55257C19BB19180099
:102750000FF0CAFF030023707B191B78002B08D0F1
:102760007B191A78D24B110018002DF0C3FCFFF72B
:1027700003FD44217B1800221A707B1800225A7036
:102780007B18AA229A707B18E122DA707B188022CB
:102790001A717B1802225A7155257C197B181A0070
:1027A000062100200FF090FC030023707B191B789A
:1027B000002B07D07B191A78BE4B110018002DF0A2
:1027C00099FC03E0BC4B18002DF004FD55257C1945
:1027D000182100200FF07CFC030023702A00BB1896
:1027E0001B78002B07D0BB181A78B44B11001800C7
:1027F0002DF080FC03E0B24B18002DF0EBFC5525CA
:102800007C195223FB181900012006F0DFFE03009B
:1028100023707B191B78002B07D07B191A78A94BE2
:10282000110018002DF066FC03E0A74B18002DF0F6
:10283000D1FC54217B1800221A707B187A18127868
:1028400009210A431A7055257C195723FB181B7858
:10285000002118000FF054FA030023707B191B7835
:10286000002B07D07B191A78984B110018002DF017
:1028700041FC03E0964B18002DF0ACFC55257C196B
:102880004E23FD185023FA185723FB1819785423A8
:10289000FB1818784C23FB1800932B0006F01EFD44
:1028A0000300237044203B185B791C003B181B7904
:1028B0001D003B18DB781E003B189B781A003B1864
:1028C0005B7819003B181B788248029301910092B3
:1028D00033002A0021002DF00DFC44243A197E4BD0
:1028E0001100180001F025F83A197C4B0F2118004F
:1028F00001F05BF855257C19774B1A000621002062
:1029000006F07EFD030023707B191B78002B07D097
:102910007B191A78724B110018002DF0EBFB03E0C5
:10292000704B18002DF056FC55257C194223FB18DE
:102930001A000221002006F089FD030023707B1994
:102940001B78002B07D07B191A78674B11001800F1
:102950002DF0D0FB03E0654B18002DF03BFC552516
:102960007C190222022100200EF0BCFE030023701D
:102970002A00BB181B78002B07D0BB181A785C4BB9
:10298000110018002DF0B6FB03E05A4B18002DF093
:1029900021FC594B01221A70574B1B7855257C1985
:1029A00018000EF08AFD030023707B191B78002BA2
:1029B00007D07B191A78514B110018002DF09AFBA3
:1029C00003E04F4B18002DF005FC4B4B01225A70D1
:1029D000494B0822DA70484B10221A71464B0122EB
:1029E0009A70454B9878444B5978434BDB78424A70
:1029F00012795526BC1900250295019200930023F7
:102A000001220EF06AFD03002370BB191B78002B16
:102A100007D0BB191A783B4B110018002DF06AFB48
:102A200003E0394B18002DF0D5FB334B9B78002B7E
:102A300017D055257C1901200FF09FF90300237052
:102A40002A00BB181B78002B07D0BB181A782F4B15
:102A5000110018002DF04EFB03E02D4B18002DF057
:102A6000B9FB3B1D2B4A03CA03C355257C193B1DEB
:102A700018000FF04DF9030023707B191B78002B11
:102A800007D07B191A78244B110018002DF032FB67
:102A900003E0224B18002DF09DFB214B18002DF078
:102AA00099FBC046BD4617B0F0BDC046001B0710DD
:102AB000581507107C150710D81507102416071095
:102AC0006416071094160710D41607100417071081
:102AD0003817071058170710C00E0020C80E002026
:102AE00094170710D81707100C1807105018071064
:102AF00084180710C0180710D8030020EC1807101E
:102B00002C1907105C190710A4190710DC190710FD
:102B1000341A0710341B07107C1A0710B81A071054
:102B2000E41A071080B500AF012101200EF0FAFF72
:102B3000C046BD4680BD000080B500AF012003F057
:102B4000B2FD0FF0EDFC084B9B7B042B03D0064B32
:102B50009B7B052B01D100F0B7FF012003F0ADFDF9
:102B6000C046BD4680BDC046D803002080B500AF3A
:102B70000AF0DEFCC046BD4680BD80B500AF002136
:102B800002200EF0CFFFC046BD4680BD80B500AF2D
:102B900006F09CFAC046BD4680BD80B500AF01215D
:102BA00004200EF0BFFFC046BD4680BD80B500AF1B
:102BB000FFF7E3FFC046BD4680BD80B582B000AFE1
:102BC00078607B68180022F033FFFFF7D6FFFFF72D
:102BD000E4FFC046BD4602B080BD80B500AFFFF740
:102BE000A1FFC046BD4680BD90B583B000AF254B68
:102BF0001A00002101200EF071FF234B1A00002162
:102C000002200EF06BFF214B1A00002104200EF071
:102C100065FFFFF76DFDFFF779FD1D4B00229A73ED
:102C20001B4B012252429A811A4B1A00002140206C
:102C30000EF054FF184B1A00002180200EF04EFFBA
:102C4000134B164A9A61FC1D06200FF099FA0300F7
:102C50002370FB1D1B78002B07D0FB1D1A78104B2F
:102C6000110018002DF046FA03E00E4B18002DF06D
:102C700041FA01F09FF8012000F086FCC046BD46F5
:102C800003B090BD392B04106D2B04108D2B041054
:102C9000D803002095380410A93D041071380410A1
:102CA0003C1B0710801B0710F0B59DB004AF786087
:102CB0005B23FB1886221A707B681B78042B04D0D8
:102CC0007B681B78822B00D025E37B6801337B6512
:102CD0007B681B78042B03D17B6D0233FB6505E019
:102CE0007B6801333B653B6D0333FB657B6D1B7874
:102CF000FF2B00D1DCE100DD04E33E2B3BD000DD07
:102D000000E3052B03D0102B00D1EAE2FAE27B6D41
:102D10000233BB60BB685A789B781B0213439AB29C
:102D2000D74B9B899A4223D1D54B012252429A819B
:102D3000D34B9B7B022B02D1D14B00229A73D14BF8
:102D400018002DF047FABB685A789B781B02134392
:102D50009BB21900BB68DB781A00CB4B18002DF032
:102D6000C9F9C74B9B7B062B02D0012000F00CFC5D
:102D700000F06EFDD2E27B6D0233FB62FB6A1B78D2
:102D8000292B00D971E19A00C04BD3181B689F46CC
:102D9000FB6A01337B61BE4B18002DF01BFA7B6987
:102DA000DA781B791B0213439BB21800FEF722FC52
:102DB0000022B84BFDF77EFD02000B001000190049
:102DC000FEF7DCFB06007B69DA781B791B021343F4
:102DD0009BB21800FEF70EFC0022AE4BFDF76AFD19
:102DE00002000B001000190000220023FDF7ECFA8E
:102DF000031E3DD07B69DA781B791B0213439BB21B
:102E00001800FEF7F7FB0022A24BFDF753FD02006E
:102E10000B0014001D007B69DA781B791B02134339
:102E20009BB21800FEF7E6FB00229A4BFDF742FD2D
:102E300002000B0010001900FEF7A0FB03001800B1
:102E4000FEF7D8FB02000B0020002900FDF7FAFF77
:102E500002000B001000190000228F4BFDF72AFD25
:102E600002000B0010001900FEF788FB02003AE098
:102E70007B69DA781B791B0213439BB21800FEF7BB
:102E8000B9FB0022834BFDF715FD02000B0010007B
:102E90001900FEF773FB03001800FEF7ABFB0400FC
:102EA0000D007B69DA781B791B0213439BB2180073
:102EB000FEF7A0FB0022774BFDF7FCFC02000B00A5
:102EC00020002900FDF7BEFF02000B0010001900D2
:102ED0000022714BFDF7EEFC02000B001000190000
:102EE000FEF74CFB02007B6959799B791B020B436F
:102EF0009BB21C007B69D9791B7A1B020B439BB2E6
:102F000019000B009B005B185B00644800932300D2
:102F100031002DF0EFF8B1E0FB6A0133BB6100F046
:102F200097FCABE0FB6A0133BB62BB6A1C78BB6AEF
:102F30005A789B781B0213439DB2BB6A1E79BB6A09
:102F400005339C46BB6ADA7D1B7E1B0213439AB293
:102F5000BB6A597E9B7E1B020B4399B2BB6AD87E2B
:102F60001B7F1B0203439BB20293019100926346B5
:102F700032002900200000F007FA7FE0FB6A0133ED
:102F80003B613B691C783B695A789B781B02134371
:102F90009DB23B691E793B6905339C463B69DA7AF1
:102FA0001B7B1B0213439AB23B69597B9B7B1B0221
:102FB0000B4399B23B69D87B1B7C1B0203439BB23A
:102FC000029301910092634632002900200000F034
:102FD000DBF953E0FB6A01337B62314B18002DF0C3
:102FE000F9F87B6A1B78002B0CD1254B06229A73CB
:102FF0007B6A5A799B791B0213439BB2180000F03D
:103000000FFF3BE07B6A1B781A00264B110018006B
:103010002DF070F832E0FB6A01333B623B6A1B7AA9
:10302000002B11D13B6A5B7A002B0DD03B6A5A7999
:103030009B791B02134398B23B6A0A3319003B6A1F
:103040005B7A1A0000F05AFF00F03EFD16E0FB6AC2
:103050000133FB61144B18002DF0BCF8084B002223
:103060009A73002000F090FA08E0FB6A1B781A00BF
:103070000E4B110018002DF03DF8C0464EE1C04641
:10308000D8030020B81B0710E41B07100028071006
:10309000241C07100000F43F00005940581C071082
:1030A000C81C0710001D0710101D0710381D071041
:1030B000FB6DFB64FB6C1A785B781B0213439BB2BD
:1030C000984A934200D1BEE0964A934200DDF9E06F
:1030D0008022120193421ED080221201934200DD11
:1030E000F0E0914A934200DDECE08022D20093426E
:1030F00006DC042B00D1F2E0062B00D1D5E0E1E0A4
:103100008A4A94466344092B00D9DBE09A00884B35
:10311000D3181B689F46FB6C02333B64E0E0854B91
:1031200018002DF057F8FB6C0233BB63D8E0824BDC
:1031300018002DF04FF8D3E0804B18002DF04AF81E
:103140007F4B9B895B257C197E4A110018000EF08D
:10315000F3F9030023707B191B78002B07D07B1930
:103160001A78794B110018002CF0C4FFB8E0774BA7
:1031700018002DF02FF8B3E0754B18002DF02AF849
:10318000FB6C02339A78D97809020A431979090449
:103190000A435B791B0613431A006E4B110018009B
:1031A0002CF0A8FFFB6C02339A78D97809020A4305
:1031B000197909040A435B791B0613431A00664B0D
:1031C000110018002CF096FF3F217B1801221A7085
:1031D0005B4B9A895B257C197B181B7819001000C2
:1031E0000EF0BDF9030023707B191B78002B07D06C
:1031F0007B191A78594B110018002CF07BFF6FE0F7
:10320000574B18002CF0E6FF6AE0564B18002CF0E4
:10321000E1FFFB6C02337B637B6B9B78002B0AD056
:103220007B6B9B7819007B6BDB781A004E4B180088
:103230002CF060FF03E04D4B18002CF0CBFF0A2070
:103240002CF068FF4CE04A4B18002CF0C3FFFB6CDD
:103250000233BB6447243B1908221A70BB6C1A79ED
:103260005B791B0213439BB21A00424B11001800FA
:103270002CF040FFBB6C1A785B781B02134398B2AA
:10328000BB6C9A78DB781B02134399B2BB6C1A793A
:103290005B791B0213439AB23B191B7800240194FB
:1032A000002400940EF0ABF91AE0FB6C02333B6390
:1032B0003B6B1B781A00304B110018002CF01AFFE2
:1032C000FFF7DCF9FB6C1A785B781B0213439BB2A7
:1032D0001A002A4B110018002CF00CFF00E0C04629
:1032E0001CE07B6D0233FB60FB681B781A00244BEB
:1032F000110018002CF0FEFEFB681B78032B0CD885
:10330000FFF7BCF97B6D1B781A001E4B11001800EB
:103310002CF0F0FE02E0C04600E0C046BD4619B009
:10332000F0BDC046190C00000A040000FFFBFFFFBF
:10333000A8280710541D07107C1D0710AC1D07108E
:10334000D803002007B20100D01D0710041E07108B
:10335000281E07105C1E0710781E0710901E07100D
:10336000DC1E07101C1F0710481F0710881F0710BE
:10337000A01F0710C41F0710D41F0710F41F071049
:103380000C2007102C200710F0B587B004AF040004
:10339000080011003B60FB1D221C1A703B1D021C23
:1033A0001A80BB1D0A1C1A703B1D1A886F4B110036
:1033B00018002CF09FFE3B6805331B781C003B680F
:1033C00004331B781D003B6803331B781E003B68E9
:1033D00002331B781A003B6801331B7819003B68E5
:1033E0001B78634802930191009233002A00210068
:1033F0002CF080FE20243B191B881800FEF7FAF8F9
:1034000000225C4BFDF756FA02000B001000190079
:10341000FEF7B4F806003B191B881800FEF7EAF81F
:103420000022544BFDF746FA02000B001000190071
:1034300000220023FCF7C8FF031E36D03B191B886F
:103440001800FEF7D7F800224A4BFDF733FA0200C6
:103450000B0014001D002023FB181B881800FEF72A
:10346000C9F80022434BFDF725FA02000B001000BB
:103470001900FEF783F803001800FEF7BBF80200FE
:103480000B0020002900FDF7DDFC02000B001000FE
:1034900019000022384BFDF70DFA02000B00100056
:1034A0001900FEF76BF8020034E02023FB181B889C
:1034B0001800FEF79FF800222E4BFDF7FBF90200E3
:1034C0000B0010001900FEF759F803001800FEF772
:1034D00091F804000D002023FB181B881800FEF74C
:1034E00089F80022234BFDF7E5F902000B002000CC
:1034F0002900FDF7A7FC02000B00100019000022B4
:103500001D4BFDF7D7F902000B0010001900FEF764
:1035100035F802002423FB181C882823FB1819887F
:103520000B009B005B185B001448009323003100E4
:103530002CF0E0FD124B9B7B012B03D1104B03229F
:103540009A7302E00E4B02229A730D4B3A1D1288B9
:103550009A810C4B18000AF091FB3B1D1B88180048
:1035600000F04EFCC046BD4603B0F0BD4020071041
:10357000842007100000F43F00005940C8200710C5
:10358000D8030020E8030020F0B595B00CAF02008E
:10359000FB1D1A70A023FB61B423BB61FB1D1B78CC
:1035A000052B40D89A00984BD3181B689F46A02340
:1035B000FB61B423BB6104237B6135E0C823DB00DE
:1035C000FB61FA23DB00BB6105237B612CE0002358
:1035D0007B6129E0C8239B00FB61C8239B00BB6182
:1035E00000237B61FA235B003B611DE0874B9B89D5
:1035F0000F257C19132118000DF049FF03002370DB
:103600007B191B78002B07D07B191A78804B11008F
:1036100018002CF06FFD07E07E4B18002CF0DAFD4F
:1036200000F01EF900E0C046FB1D1B78062B00D100
:10363000E1E000DDE1E0042B00D1B9E000DDDCE0F9
:10364000012B02DC002B04DAD7E0022B00D18CE046
:10365000D3E00823FB18180006231A0000212CF0E1
:1036600073FF0F257C19FA6900230A93002309933D
:103670000123089300230793012306930023059356
:103680000023049300230393002302930723019351
:10369000BB69009313000122022100200EF07DFB84
:1036A000030023707B191B78002B07D07B191A7835
:1036B000594B110018002CF01DFD07E07B69DAB2B0
:1036C000524B9A73554B18002CF084FD0F257C1932
:1036D000534B0F22032100200EF094FB03002370B4
:1036E0007B191B78002B07D07B191A784D4B1100E2
:1036F00018002CF0FFFC03E04B4B18002CF06AFD87
:103700000F257C190823FB181A00012101200EF057
:103710007DFB030023707B191B78002B07D07B19DE
:103720001A78424B110018002CF0E4FC67E0404B83
:1037300018002CF04FFD3F4B18000AF09FFAFB1DBC
:103740001B78012B06D13C4A3A4B110018000AF0B5
:1037500045FA54E0FB1D1B78002B50D1374A354BFE
:10376000110018000AF03AFA49E00F257C190022EE
:10377000002100200EF04AFB0300237029007B1873
:103780001B78002B0BD07B69DAB2204B9A737B1825
:103790001A782B4B110018002CF0ACFC03E0294BDD
:1037A00018002CF017FD234B18000AF067FA27E0E9
:1037B000164B9889FB6999B2BB699AB27B699DB235
:1037C0003B699BB20F26BC1900932B000DF040FF04
:1037D00003002370BB191B78002B07D0BB191A7884
:1037E000194B110018002CF085FC09E0174B18004C
:1037F0002CF0F0FC04E0C04602E0C04600E0C04609
:10380000C046BD4609B0F0BDD0280710D80300203F
:10381000E42107101022071098220710DC2207105D
:10382000C80E0020102307104C2307107823071020
:10383000B4230710E8030020905F0100A0BB0D0037
:10384000E4230710102407103424071078240710ED
:1038500080B500AF01200EF091F9C046BD4680BD95
:1038600080B500AF01200EF0A7F9C046BD4680BD6F
:1038700080B582B000AF7860054B18002CF0AAFC30
:10388000002140200EF04EF9C046BD4602B080BD7A
:10389000B424071080B500AF0220FFF775FE044B7B
:1038A00000229A7300F000F9C046BD4680BDC046B4
:1038B000D803002080B584B000AF02003960FB1D42
:1038C0001A700F203B18FA1D127812091A700E2375
:1038D000FB18FA1D12780F210A401A703B181B784A
:1038E000092B06D93B181B783733DAB23B681A70BC
:1038F00006E00F23FB181B783033DAB23B681A70EE
:103900000E22BB181B78092B07D93B680133BA1864
:1039100012783732D2B21A7007E03B6801330E22B8
:10392000BA1812783032D2B21A70C046BD4604B00E
:1039300080BD80B584B000AF786039600F23FB187C
:1039400000221A7024E00F217B181B78002B19D05D
:103950007B181B78013B7A68D3181B78582B11D140
:103960007B181B787A68D3181B78582B0AD13B68D0
:1039700018787B181B78013B7A68D3181900FFF779
:1039800099FF0EE00F217B181A787B1801321A700C
:103990000F23FB181B787A68D3181B78002BD2D121
:1039A000C046C046BD4604B080BD90B587B000AFEC
:1039B000F8607A600B23FB180A1C1A701623FB1898
:1039C00000221A8049E016217B181B88FA68D21859
:1039D00015203B1812781A707B181B880133FA687F
:1039E000D21814243B1912781A703B191B78092B32
:1039F00024D17B181A883B181B78D3181A00FB684F
:103A00009B181B78582B1BD17B181A8804003B1875
:103A10001B78D318013BFA68D3181B78582B0FD1A9
:103A20007B6818787B181A883B191B78D318013BE0
:103A3000FA68D3181900FFF73DFF01E0C04600E027
:103A4000C0461523FB181B789AB216217B181B88D9
:103A5000D3189AB27B1801321A800B23FB181B78FB
:103A60009BB21622BA1812889A42ACD3C046C046FE
:103A7000BD4607B090BD80B500AF002180200EF09C
:103A800051F8C046BD4680BD80B500AF8023DB0144
:103A90001800FEF705FE034B180008F03FFAC04679
:103AA000BD4680BDC003002080B500AF054B1800A7
:103AB00008F034FA8023DB011800FEF707FEC04649
:103AC000BD4680BDC003002080B500AF034B180089
:103AD00008F024FAC046BD4680BDC046C0030020A1
:103AE00080B500AF0B4B9B7B002B03D0094B9B7B1E
:103AF000052B0CD1074B9B7B002B01D1FFF7C4FF9B
:103B00000220FFF741FD0120FFF73EFDC046C04601
:103B1000BD4680BDD803002080B582B000AF78607C
:103B2000002006F029FC044B18002CF053FBC04683
:103B3000BD4602B080BDC046C424071080B582B027
:103B400000AF7860124B1B78002B0BD1002006F0E1
:103B5000F5FB0F4B01221A700E4B0A2118000AF0D8
:103B60003DF810E00A4B1B78012B0CD1002006F029
:103B700003FC074B00221A70FA239A00054B110030
:103B800018000AF02BF8C046BD4602B080BDC04602
:103B900000040020180F002080B582B000AF0200A2
:103BA000BB1D1A80BB1D1B88002B0FD1002006F007
:103BB000E3FB214B18002CF00DFB204B18000AF002
:103BC0005DF81F4B18000AF059F82FE0BB1D1B8849
:103BD000012B15D1002006F0B1FB1A4B18002CF078
:103BE000F9FA164B18000AF049F8154B18000AF0BC
:103BF00045F8154A124B1100180009F0EFFF15E0C7
:103C0000BB1D1B88022B0FD1104B18002CF0E2FAC1
:103C10000B4B18000AF032F8084B18000AF02EF887
:103C20000020FFF78BFF01E0062300E000231800CF
:103C3000BD4602B080BDC046C4240710180F002046
:103C4000000F0020CC24071060EA0000D4240710E5
:103C500080B582B000AF02003960FB1D1A700D4BB9
:103C60000C22002118002CF06FFCFB1D1B78DAB22F
:103C70000B2A00D90B23DBB21A003968054B180058
:103C80002CF0CAFCFFF7F7FE00231800BD4602B077
:103C900080BDC046E40E002080B582B000AF0200B7
:103CA000BB1D1A807B1D0A1C1A70074BBA1D128897
:103CB0009A83054B7A1D12789A77FFF7DCFE002372
:103CC0001800BD4602B080BDD80E002080B582B07D
:103CD00000AF0200FB1D1A70054BFA1D212112785E
:103CE0005A54FFF7C8FE00231800BD4602B080BD3D
:103CF000D80E002080B586B000AFB9607A600F237F
:103D0000FB18021C1A7000237B611223FB1800228F
:103D10001A807B6800221A70204B180007F060FAA6
:103D20001E4B0321180007F0D7FA031E05D01C4BC9
:103D300018002CF04FFA0A232CE0184B180007F05B
:103D400019FB03007B617A6913001B019B1A1A019E
:103D5000D21A13011A00130012491800FCF772FA64
:103D600003001A0012217B181A807B181B88DAB214
:103D7000BB681A707B181B881B0A9AB2BB68013398
:103D8000D2B21A707B6802221A70044B180007F036
:103D900067FA00231800BD4606B080BD88030020E6
:103DA000E0240710FFFF000080B500AFC046BD460D
:103DB00080BD000090B583B000AFFC1DFA239A00CF
:103DC0000023002101200DF06AFC03002370FB1D7D
:103DD0001B78002B07D0FB1D1A78074B1100180029
:103DE0002CF088F903E0054B18002CF0F3F9C046DD
:103DF000BD4603B090BDC046F424071050250710FF
:103E000080B582B000AF0200BB1D1A80034BBA1D03
:103E100012881A80C046BD4602B080BD040400204E
:103E2000B0B584B000AF0200BB1D1A802B4BBA1D89
:103E300012885A800F257C19294ABB1D1888130047
:103E4000012200210DF081FC030023707B191B78F7
:103E5000002B07D07B191A78224B110018002CF088
:103E600049F903E0204B18002CF0B4F90F257C1918
:103E7000BB1D1B88012118000DF051FC03002370AD
:103E80007B191B78002B07D07B191A78174B110070
:103E900018002CF02FF903E0154B18002CF09AF9BC
:103EA0000E4B1B880F257C19132118000DF0EFFA1B
:103EB000030023707B191B78002B07D07B191A781D
:103EC0000C4B110018002CF015F903E00A4B1800F8
:103ED0002CF080F9C046BD4604B0B0BD04040020FB
:103EE00008040020A0250710DC2507101026071065
:103EF0005826071098260710C426071090B585B0DD
:103F000000AF39601100BB1D021C1A807B1D0A1C0A
:103F10001A700E23FB1800221A8031E00E217B1844
:103F20001B883A68D2180D203B1812781A707B183B
:103F30001B8801333A68D2180C243B1912781A7086
:103F40003B191B78342B0ED17B181B8802333A683F
:103F5000D1183B181B78013BDAB2BB1D1B88180037
:103F600000F020F800E0C0460D23FB181B789AB241
:103F70000E217B181B88D3189AB27B1801321A8045
:103F80007B1D1B789BB20E22BA1812889A42C5D3A9
:103F9000034B18002CF01EF9C046BD4605B090BD7D
:103FA000E8260710F0B597B000AF39601100BB1DCF
:103FB000021C1A807B1D0A1C1A705723FB18FF2253
:103FC0001A705623FB18FF221A704F23FB18002289
:103FD0001A703B681A784E203B187F210A401A70ED
:103FE000D94B1B793A1812789A4200D0BAE23B6852
:103FF00001333B659BE24D23FB183A6D12781A7032
:104000003B6D1B781B09DAB24C23FB1801321A7086
:104010004B217B183A6D52781A7057203B181B7849
:104020000133DAB23B181A70C74B5B797A181278F1
:104030009A4204D07B181B78FF2B00D070E24B23F0
:10404000FB181B78FF2B05D05623FB185722BA18F4
:1040500012781A704D23FB181B78BF2B00D117E183
:1040600000DD34E2B02B40D000DD30E23F2B00D148
:104070006CE100DD2BE2202B00D1CBE100DD26E25C
:10408000002B03D0102B00D19AE020E24B23FB1829
:104090001B78FF2B00D136E24F203B181B781024F1
:1040A0003A191021D154A84BDA883B181B780133F8
:1040B000D1B23A19D154A44BDB881B0A99B23B18F0
:1040C0001B7801333A19D3180133CAB21A703B185E
:1040D0001B783A19D35C1B09DAB23B181B78D3184A
:1040E000DAB23B1802321A700DE24923FB183A6D1E
:1040F00092781A703B6D0B331B781AB23B6D0C3300
:104100001B781B021BB213431AB246217B181A807C
:1041100045257C197B181B881800FFF73DFD03001F
:1041200023702C003B191B78002B1FD04B23FB184E
:104130001B78FF2B1AD04F203B181B7810257A19BB
:104140000021D1543B181B7801337A1939190978A9
:10415000D1543B181B787A19D35C1B09DAB23B188F
:104160001B78D318DAB23B1802321A704523FB18B9
:104170001B78002B00D0C8E14B23FB181B78FF2BCA
:1041800000D1C2E14F203B181B7810243A190121BD
:10419000D1543B181B7801333A1949217918097811
:1041A000D15401007B181B783A19D35C1B09DAB291
:1041B0007B181B78D318DAB27B1802321A70A4E18C
:1041C0004B23FB181B78FF2B00D1A0E14223FB18E7
:1041D0003A6D92781A704F257B191B78023310269E
:1041E000BA19D11841203C180F22BA184223FB18E3
:1041F0001B781800FFF77EFD0300237041203B1859
:104200001B78002B18D07B191B78BA190021D154C8
:104210007B191B780133BA1939180978D1547B19E5
:104220001B78BA19D35C1B09DAB27B191B78D31837
:10423000DAB27B1902321A704123FB181B78002B6B
:1042400000D066E10F23FB181B781B015BB20E2226
:1042500013435AB24F203B181B78D1B210243A199D
:10426000D1543B181B7801333A1942217918097847
:10427000D15401007B181B783A19D35C1B09DAB2C0
:104280007B181B78D318DAB27B1802321A7040E11F
:104290004C23FB181B78013BDAB23B6D02334A25F5
:1042A0007C1919001000FFF7D3FC030023702C00C9
:1042B0003B191B78002B1FD04B23FB181B78FF2BBF
:1042C0001AD04F203B181B7810257A190021D154A1
:1042D0003B181B7801337A1939190978D1543B18E6
:1042E0001B787A19D35C1B09DAB23B181B78D318F8
:1042F000DAB23B1802321A704A23FB181B78002BE3
:1043000000D008E14B23FB181B78FF2B00D102E102
:104310004F203B181B7810243A190F21D1543B1819
:104320001B7801333A190021D15401007B181B7806
:104330003A19D35C1B09DAB27B181B78D318DAB2AE
:104340007B1802321A70E6E0040400203B6D023351
:104350001B781AB23B6D03331B781B021BB213434D
:104360001BB29AB23B6D04331B7844257C191900AB
:104370001000FFF791FC030023702C003B191B7801
:10438000002B1FD04B23FB181B78FF2B1AD04F207C
:104390003B181B7810257A190021D1543B181B7843
:1043A00001337A1939190978D1543B181B787A19D5
:1043B000D35C1B09DAB23B181B78D318DAB23B186E
:1043C00002321A704423FB181B78002B00D0A4E0A3
:1043D0004B23FB181B78FF2B00D19EE04F203B188E
:1043E0001B7810243A190F21D1543B181B78013344
:1043F0003A190021D15401007B181B783A19D35C7B
:104400001B09DAB27B181B78D318DAB27B18023298
:104410001A7082E03B6D03331B7843257C1918002A
:10442000FFF754FC030023702C003B191B78002B72
:104430001FD04B23FB181B78FF2B1AD04F203B18A3
:104440001B7810257A190021D1543B181B780133B1
:104450007A1939190978D1543B181B787A19D35C29
:104460001B09DAB23B181B78D318DAB23B180232B8
:104470001A704323FB181B78002B50D14B23FB18D9
:104480001B78FF2B4BD04F203B181B7810243A1978
:104490001121D1543B181B7801333A6D91783A19A8
:1044A000D1543B181B7802333A6DD1783A19D15464
:1044B00001007B181B783A19D35C1B09DAB27B1810
:1044C0001B78D318DAB27B1802321A7027E04F201B
:1044D0003B181B7810243A190021D1543B181B7843
:1044E00001333A190221D15401007B181B783A1983
:1044F000D35C1B09DAB27B181B78D318DAB27B18AD
:1045000002321A700CE0C0460AE0C04608E0C0461D
:1045100006E0C04604E0C04602E0C04600E0C046F7
:104520004C23FB181B7801333A6DD3183B657B1D78
:104530001B78013B3A68D3183A6D9A4200D25AE58B
:104540005622BB181B787F2B0DD8BB1819784F2328
:10455000FB181C781023FA18BB1D1888230000F0E4
:1045600005F800E0C046BD4617B0F0BDF0B589B013
:1045700004AF040008003A601900BB1D221C1A8019
:104580007B1D021C1A703B1D0A1C1A703B1D1B78F8
:104590000133DAB2234B1A72224B34225A72224868
:1045A0003B1D1A783B6819002CF036F81D4B5888D3
:1045B0001C4B1D791B4B1E793B1D1B780233DBB254
:1045C0000F22BC18BA1D1188184A029201937B1D54
:1045D0001B78009333002A0018F090FC030023702E
:1045E0000F22BB181B78002B13D0BB1819780D4B6A
:1045F0005B881D00BB1D1A880A4B1B791C007B1DA4
:104600001B780B480193009413002A002BF072FDD5
:1046100003E0084B18002BF0DDFDC046BD4605B099
:10462000F0BDC046040400200E0400200C0400204D
:10463000102707109C27071080B500AF04F000FA80
:10464000074B1900002004F059FB064B190001200C
:1046500004F054FB044B024A1A60C046BD4680BDBC
:10466000400400205004002060040020F0B589B010
:1046700002AFB96011007B600F243B19021C1A7055
:104680000C23FB180A1C1A803B191B78022B03D140
:104690001A4B1B4A1A6002E0184B1A4A1A60174B51
:1046A00018681726BC19BD680C23FB181B889C468C
:1046B0000F23FB1819787B680193282308229B1885
:1046C000DB191B8800932B00624604F0B9FB030042
:1046D0002370BB191B78002B01D1002309E017239D
:1046E000FB181B78022B02D101235B4201E002235D
:1046F0005B421800BD4607B0F0BDC0466004002014
:104700005004002040040020B0B586B002AF040081
:10471000080011003B60FB1D221C1A70BB1D021C0F
:104720001A703B1D0A1C1A80BB1D1B78022B07D177
:104730002E4B2F4A1A600E23FB1801221A7006E036
:104740002A4B2C4A1A600E23FB1800221A70FB1DFC
:104750001B78022B12D1254B18680F23FC1820233D
:10476000FB181D883A683B1D19880C23FB18009321
:104770002B0004F031FB0300237021E0FB1D1B78AC
:10478000002B08D1194B1A680E23FB181B78110057
:10479000180004F0B3FA154B18680F23FC183D6895
:1047A0003B1D1A88BB1D19780C23FB18019320238D
:1047B000FB181B8800932B0004F0D4FA030023702D
:1047C0000F23FB181B78002B01D1002309E00F23D6
:1047D000FB181B78042B02D103235B4201E0022368
:1047E0005B421800BD4604B0B0BDC0466004002066
:1047F000500400204004002090B585B000AF39601F
:104800001100BB1D021C1A803B1D0A1C1A800E4B96
:1048100018683B1D1C883A68BB1D1988230003F0EB
:10482000D7FA0300FB60FB68002B01D1002307E0EF
:10483000FB68002B02DA3B1D1B8801E003235B426F
:104840001800BD4605B090BD6004002080B582B060
:1048500000AF0200FB1D1A70FB1D1B78022B0AD152
:104860000B4B1A680B4B9A420DD0094B1B68180072
:1048700004F04CFB08E0FB1D1B78032B04D1002047
:1048800004F052FB00E0C046BD4602B080BDC04609
:10489000600400205004002080B584B000AFF860B0
:1048A000B9607A607A68B968FB681800FBF72AFC7F
:1048B000C046BD4604B080BD80B584B000AFF8608E
:1048C000B9607A607A68B968FB6818002BF03CFE22
:1048D000C046BD4604B080BD80B584B000AFF8606E
:1048E000B9607A607A68B968FB6818002BF01EFE20
:1048F00003001800BD4604B080BD90B589B000AF7C
:10490000F860B9607A6010243B19180005F084F84B
:1049100021007B181A78FB681A707B185A78BB68DC
:104920001A707B189A787B681A70C046BD4609B029
:1049300090BD80B582B000AF786039603A687B681E
:104940001100180004F0B2FC03001800BD4602B0CC
:1049500080BD80B584B000AFF860B9607A607A68D5
:10496000B968FB68180002F089F903001800BD4619
:1049700004B080BD80B584B000AFF860B9607A60E3
:104980007A68B968FB68180001F0AAFFC046BD4606
:1049900004B080BD80B582B000AF78607B6818003D
:1049A0002CF012FD03001800BD4602B080BD80B59A
:1049B00084B000AFF860B9607A607A68B968FB6863
:1049C00018002CF097FB03001800BD4604B080BD12
:1049D00080B584B000AFF860B9607A607A68B96871
:1049E000FB6818002CF0BAFC03001800BD4604B0A8
:1049F00080BD80B582B000AF78607B68180002F09F
:104A0000DDFCC046BD4602B080BD80B582B000AFBF
:104A100078607B68180002F0EBFCC046BD4602B02F
:104A200080BD80B582B000AF0200FB1D1A70FB1D77
:104A30001B785BB2180004F0ABFE03001800BD4603
:104A400002B080BD80B582B000AF0200FB1D1A70BD
:104A5000FB1D1B78180004F0FFFE03001800BD4684
:104A600002B080BD80B500AF04F02AFF030018003B
:104A7000BD4680BD80B500AF04F028FF03001800DC
:104A8000BD4680BD80B582B000AF0200FB1D1A702C
:104A9000FB1D1B78180004F01FFFC046BD4602B086
:104AA00080BD80B500AF08F033FA03001800BD46A2
:104AB00080BD80B500AF04F0EFFF03001800BD46D5
:104AC00080BD80B500AF09F077F802000B00100040
:104AD0001900BD4680BD80B584B000AFF8603A6073
:104AE0007B603A687B68F968080009F0ADF803005C
:104AF0001800BD4604B080BD80B582B000AF7860BC
:104B00007B68180009F0BAF8C046BD4602B080BD07
:104B100080B582B000AF786008001100FB1C021C59
:104B20001A70BB1C0A1C1A70BB1C1A78FB1C197863
:104B30007B68180008F02AFF0300DBB21800BD46AE
:104B400002B080BD80B500AF08F070FF0300DBB29B
:104B50001800BD4680BD80B582B000AF78607B682C
:104B6000180008F035FE02000B0010001900BD46C9
:104B700002B080BD80B500AF08F0CCFFC046BD4696
:104B800080BD000080B582B000AF7860074B5B68E5
:104B90007F22934319007B687F221A40034B0A430C
:104BA0005A60C046BD4602B080BDC046C00000206D
:104BB00080B500AF044B5A68034B80210A435A600A
:104BC000C046BD4680BDC046C000002080B500AFD5
:104BD000044B5A68034B80218A435A60C046BD4645
:104BE00080BDC046C000002080B582B000AF7860B4
:104BF000074B1B69074A134019007B681B02064AD2
:104C00001A40034B0A431A61C046BD4602B080BD3C
:104C1000C0000020FF0000F000FFFF0F80B582B051
:104C200000AF02003960FB1D1A70FB1D1B785C226F
:104C300053430B4A944663441B683F229343190035
:104C40003B683F221A40FB1D1B785C20434304480D
:104C5000844663440A431A60C046BD4602B080BD24
:104C6000DC00002080B582B000AF0200FB1D1A708E
:104C7000FB1D1B785C225343084A944663441A6820
:104C8000FB1D1B785C214B4304498C466344402147
:104C90000A431A60C046BD4602B080BDDC00002059
:104CA00080B582B000AF0200FB1D1A70FB1D1B789F
:104CB0005C225343084A944663441A68FB1D1B78E0
:104CC0005C214B4304498C46634440218A431A606B
:104CD000C046BD4602B080BDDC00002080B582B079
:104CE00000AF0200FB1D1A70FB1D1B785C225343B2
:104CF000084A944663441A68FB1D1B785C214B43A9
:104D000004498C46634480210A431A60C046BD466C
:104D100002B080BDDC00002080B582B000AF020090
:104D2000FB1D1A70FB1D1B785C225343084A9446F6
:104D300063441A68FB1D1B785C214B4304498C4675
:104D4000634480218A431A60C046BD4602B080BDDC
:104D5000DC00002080B582B000AF0200FB1D1A709D
:104D6000FB1D1B785C225343074A944663441B682F
:104D700080221340802B01D1012300E00023180082
:104D8000BD4602B080BDC046DC00002080B582B0C8
:104D900000AF02003960FB1D1A70FB1D1B785C22FE
:104DA00053430C4A944663441B680B4A1340190052
:104DB0003B681A02FC239B011A40FB1D1B785C20F8
:104DC00043430448844663440A431A60C046BD46D0
:104DD00002B080BDDC000020FFC0FFFF80B582B0C4
:104DE00000AF0200FB1D1A70FB1D1B785C225343B1
:104DF000054A944663441B681B0A3F22134018006F
:104E0000BD4602B080BDC046DC00002080B582B047
:104E100000AF0200FB1D1A70FB1D1B785C22534380
:104E2000094A944663441A68FB1D1B785C214B4376
:104E300005498C466344802109024A401A60C046F5
:104E4000BD4602B080BDC046DC00002080B582B007
:104E500000AF0200FB1D1A70FB1D1B785C22534340
:104E6000094A944663441A68FB1D1B785C214B4336
:104E700005498C466344802189030A431A60C04671
:104E8000BD4602B080BDC046DC00002080B582B0C7
:104E900000AF0200FB1D1A70FB1D1B785C22534300
:104EA000084A944663441A68FB1D1B785C214B43F7
:104EB00004498C46634404490A401A60C046BD4612
:104EC00002B080BDDC000020FFFFDFFF80B582B0B4
:104ED00000AF02003960FB1D1A70FB1D1B785C22BD
:104EE00053430C4A944663441B680B4A1340190011
:104EF0003B681A06E023DB041A40FB1D1B785C208C
:104F000043430448844663440A431A60C046BD468E
:104F100002B080BDDC000020FFFFFFF880B582B04A
:104F200000AF0200FB1D1A70FB1D1B785C2253436F
:104F3000054A944663441B681B0E07221340180061
:104F4000BD4602B080BDC046DC00002080B582B006
:104F500000AF02003960FB1D1A70FB1D1B785C223C
:104F600053430C4A944663441B680B4A1340190090
:104F70003B68DA0680231B051A40FB1D1B785C206A
:104F800043430448844663440A431A60C046BD460E
:104F900002B080BDDC000020FFFFFFF780B582B0CB
:104FA00000AF02003960FB1D1A70FB1D1B785C22EC
:104FB00053430C4A944663441B680B4A1340190040
:104FC0003B681A07E023DB051A40FB1D1B785C20B9
:104FD00043430448844663440A431A60C046BD46BE
:104FE00002B080BDDC000020FFFFFF8F80B582B0E3
:104FF00000AF0200FB1D1A70FB1D1B785C2253439F
:10500000054A944663441B681B0F0722134018008F
:10501000BD4602B080BDC046DC00002080B582B035
:1050200000AF02003960FB1D1A70FB1D1B785C226B
:105030005343084A944663445B68FB1D1B785C221B
:105040005343044A944663443A685A60C046BD4696
:1050500002B080BDDC00002080B582B000AF02004D
:105060003960FB1D1A70FB1D1B785C225343084AF4
:10507000944663449B68FB1D1B785C225343044A9F
:10508000944663443A689A60C046BD4602B080BD0B
:10509000DC00002080B582B000AF02003960FB1D4B
:1050A0001A70FB1D1B785C225343084A94466344E4
:1050B0009B69FB1D1B785C225343044A944663445E
:1050C0003A689A61C046BD4602B080BDDC0000204F
:1050D00080B582B000AF02003960FB1D1A70FB1D65
:1050E0001B785C2253430B4A94466344DB69FF22DE
:1050F000934319003B68FF221A40FB1D1B785C207C
:1051000043430448844663440A43DA61C046BD46CB
:1051100002B080BDDC00002080B582B000AF02008C
:10512000FB1D1A70FB1D1B785C225343044A9446F6
:105130006344DB69FF2213401800BD4602B080BD06
:10514000DC00002080B582B000AF02003960FB1D9A
:105150001A70FB1D1B785C2253430B4A9446634430
:10516000DB69FF22134019003B681A02FB1D1B7804
:105170005C2043430448844663440A43DA61C046E2
:10518000BD4602B080BDC046DC00002080B582B0C4
:1051900000AF0200FB1D1A70FB1D1B785C225343FD
:1051A000054A94466344DB691B0A1B021B0A18006C
:1051B000BD4602B080BDC046DC00002080B582B094
:1051C00000AF02003960FB1D1A70FB1D1B785C22CA
:1051D00053430B4A944663441B6A1B0C19043B68F7
:1051E0001B041A0CFB1D1B785C20434304488446B7
:1051F00063440A431A62C046BD4602B080BDC04641
:10520000DC00002080B582B000AF0200FB1D1A70E8
:10521000FB1D1B785C225343044A944663441B6A7B
:105220001B041B0C1800BD4602B080BDDC00002032
:1052300080B582B000AF0200FB1D1A70FB1D1B7809
:105240005C225343094A944663441A6AFB1D1B7847
:105250005C214B4305498C466344802189050A4300
:105260001A62C046BD4602B080BDC046DC000020C8
:1052700080B582B000AF0200FB1D1A70FB1D1B78C9
:105280005C225343084A944663441A6AFB1D1B7808
:105290005C214B4304498C46634404490A401A622A
:1052A000C046BD4602B080BDDC000020FFFFFFDF2E
:1052B00080B582B000AF02003960FB1D1A70FB1D83
:1052C0001B785C225343084A944663445B6AFB1D87
:1052D0001B785C225343044A944663443A685A62FA
:1052E000C046BD4602B080BDDC00002080B582B063
:1052F00000AF0200FB1D1A70FB1D1B785C2253439C
:10530000034A944663445B6A1800BD4602B080BD00
:10531000DC00002080B582B000AF02003960FB1DC8
:105320001A70FB1D1B785C2253430B4A944663445E
:105330009B6A1B0E19063B681B021A0AFB1D1B7891
:105340005C2043430448844663440A439A62C0464F
:10535000BD4602B080BDC046DC00002080B582B0F2
:1053600000AF02003960FB1D1A70FB1D1B785C2228
:1053700053430A4A944663449B6A1B02190A3B68DA
:105380001A06FB1D1B785C20434304488446634493
:105390000A439A62C046BD4602B080BDDC000020D0
:1053A00080B582B000AF0200FB1D1A70FB1D1B7898
:1053B0005C225343084A94466344DA6AFB1D1B7817
:1053C0005C214B4304498C46634480210A43DA62E2
:1053D000C046BD4602B080BDDC00002080B582B072
:1053E00000AF0200FB1D1A70FB1D1B785C225343AB
:1053F000084A94466344DA6AFB1D1B785C214B43E0
:1054000004498C46634480218A43DA62C046BD4623
:1054100002B080BDDC00002080B582B000AF020089
:10542000FB1D1A70FB1D1B785C225343074A9446F0
:105430006344DB6A80221340802B01D1012300E00A
:1054400000231800BD4602B080BDC046DC0000202D
:1054500080B582B000AF02003960FB1D1A70FB1DE1
:105460001B785C2253430B4A94466344DB6A1F2239
:10547000934319003B681F221A40FB1D1B785C20D8
:1054800043430448844663440A43DA62C046BD4647
:1054900002B080BDDC00002080B582B000AF020009
:1054A000FB1D1A70FB1D1B785C225343044A944673
:1054B0006344DB6A1F2213401800BD4602B080BD62
:1054C000DC00002080B582B000AF02003960FB1D17
:1054D0001A70FB1D1B785C2253430C4A94466344AC
:1054E000DB6A0B4A134019003B681A02FC239B013C
:1054F0001A40FB1D1B785C204343044884466344E8
:105500000A43DA62C046BD4602B080BDDC0000201E
:10551000FFC0FFFF80B582B000AF0200FB1D1A7014
:10552000FB1D1B785C225343054A94466344DB6AA7
:105530001B0A3F2213401800BD4602B080BDC04682
:10554000DC00002080B582B000AF02003960FB1D96
:105550001A70FB1D1B785C2253430A4A944663442D
:10556000DB6A1B04190C3B681A04FB1D1B785C20CA
:1055700043430448844663440A43DA62C046BD4656
:1055800002B080BDDC00002080B582B000AF020018
:10559000FB1D1A70FB1D1B785C225343054A944681
:1055A0006344DB6A1B0C1B041B0C1800BD4602B0D5
:1055B00080BDC046DC00002080B582B000AF020094
:1055C0003960FB1D1A70FB1D1B785C2253430B4A8C
:1055D000944663441B6B9B0D99053B689B029A0A9A
:1055E000FB1D1B785C2043430448844663440A4304
:1055F0001A63C046BD4602B080BDC046DC00002034
:1056000080B582B000AF0200FB1D1A70FB1D1B7835
:105610005C225343044A944663441B6B9B029B0ADF
:105620001800BD4602B080BDDC00002080B582B00D
:1056300000AF786039607B681B687B683A681A60E5
:10564000C046BD4602B080BD80B582B000AF786074
:1056500039607B685B68012293431A003B68012133
:105660000B401A437B685A60C046BD4602B080BDFD
:1056700080B582B000AF786039607B685B680422D7
:1056800093431A003B689B0004210B401A437B683C
:105690005A60C046BD4602B080BD80B582B000AF42
:1056A000786039607B685B68082293431A003B6826
:1056B000DB0008210B401A437B685A60C046BD4698
:1056C00002B080BD80B582B000AF786039607B6881
:1056D0005B68102293431A003B681B0110210B40AA
:1056E0001A437B685A60C046BD4602B080BD80B593
:1056F00082B000AF786039607B685B68202293439A
:105700001A003B685B0120210B401A437B685A60FA
:10571000C046BD4602B080BD80B582B000AF7860A3
:105720007B685B6840221A437B685A60C046BD466E
:1057300002B080BD80B582B000AF78607B685B68E6
:1057400080221A437B685A60C046BD4602B080BDC5
:1057500080B582B000AF78607B685B68802293433D
:105760001A007B685A60C046BD4602B080BD00008A
:1057700080B582B000AF786039607B685B68074AAB
:105780001A403B68190280235B000B401A437B6878
:105790005A60C046BD4602B080BDC046FFFEFFFF56
:1057A00080B582B000AF786039607B685B68074A7B
:1057B0001A403B68590280239B000B401A437B68C8
:1057C0005A60C046BD4602B080BDC046FFFDFFFF27
:1057D00080B582B000AF786039607B685B68074A4B
:1057E0001A403B6899028023DB000B401A437B6818
:1057F0005A60C046BD4602B080BDC046FFFBFFFFF9
:1058000080B582B000AF786039607B689B687B6848
:105810003A689A60C046BD4602B080BD80B582B08D
:1058200000AF78607B689B681800BD4602B080BD01
:1058300080B582B000AF786039607B68DB681B0D93
:105840001A053B681B031B0B1A437B68DA60C046D2
:10585000BD4602B080BD80B582B000AF78607B6885
:10586000DB68802252031A437B68DA60C046BD467B
:1058700002B080BD80B582B000AF786039607B68CF
:10588000DB68074A1A403B6899058023DB030B401D
:105890001A437B68DA60C046BD4602B080BDC04690
:1058A000FFFFBFFF80B582B000AF786039607B68D2
:1058B000DB68074A1A403B68D90580231B040B406C
:1058C0001A437B68DA60C046BD4602B080BDC04660
:1058D000FFFF7FFF80B582B000AF786039607B68E2
:1058E000DB68074A1A403B68190680235B040B40BB
:1058F0001A437B68DA60C046BD4602B080BDC04630
:10590000FFFFFFFE80B582B000AF78607B68DB6888
:10591000802292041A437B68DA60C046BD4602B01A
:1059200080BD80B582B000AF78607B68DB68802284
:10593000D2041A437B68DA60C046BD4602B080BD1F
:1059400080B582B000AF78607B68DB688022D205CA
:105950001A437B68DA60C046BD4602B080BD80B5A0
:1059600082B000AF78607B68DB68802212061A4341
:105970007B68DA60C046BD4602B080BD80B582B0AB
:1059800000AF7860C023DB055B68074A134019004D
:105990007B68064A1A40C023DB050A435A60C046AA
:1059A000BD4602B080BDC0464F000200B0FFFDFF03
:1059B00080B582B000AF7860C023DB059B69082208
:1059C000934319007B68DB0008221A40C023DB05E3
:1059D0000A439A61C046BD4602B080BD80B582B020
:1059E00000AF7860C023DB059B6901229343190057
:1059F0007B6801221A40C023DB050A439A61C04636
:105A0000BD4602B080BD80B588B000AF78600800A8
:105A10001100FB1C021C1A70BB1C0A1C1A707B684C
:105A20007B61FB1C1B78012B05D10623BB60BB6887
:105A30000233FB6115E0FB1C1B78002B05D104230E
:105A4000FB60FB680233FB610BE0FB1C1B78022B45
:105A500005D102233B613B690433FB6101E0002374
:105A6000FB61FB1C1B78012B03D0FB1C1B78022B5A
:105A700009D1BB1C1B78012B02D19B23BB6113E016
:105A80003D23BB6110E0FB1C1B78002B03D0FB1CEB
:105A90001B78032B08D1BB1C1B78012B02D1992347
:105AA000BB6101E03B23BB61BA69FB69D3187A692A
:105AB000D31A7B617B691800BD4608B080BD80B5F4
:105AC00082B000AF78607B681800FFF757FFC046D0
:105AD000BD4602B080BD80B500AF0120FFF768FF72
